{
	"github.com/OpenZeppelin/openzeppelin-contracts/blob/v2.3.0/contracts/examples/SimpleToken.sol#L20": {
		"SimpleToken": {
			"abi": [
				{
					"inputs": [],
					"payable": false,
					"stateMutability": "nonpayable",
					"type": "constructor"
				},
				{
					"anonymous": false,
					"inputs": [
						{
							"indexed": true,
							"internalType": "address",
							"name": "owner",
							"type": "address"
						},
						{
							"indexed": true,
							"internalType": "address",
							"name": "spender",
							"type": "address"
						},
						{
							"indexed": false,
							"internalType": "uint256",
							"name": "value",
							"type": "uint256"
						}
					],
					"name": "Approval",
					"type": "event"
				},
				{
					"anonymous": false,
					"inputs": [
						{
							"indexed": true,
							"internalType": "address",
							"name": "from",
							"type": "address"
						},
						{
							"indexed": true,
							"internalType": "address",
							"name": "to",
							"type": "address"
						},
						{
							"indexed": false,
							"internalType": "uint256",
							"name": "value",
							"type": "uint256"
						}
					],
					"name": "Transfer",
					"type": "event"
				},
				{
					"constant": true,
					"inputs": [],
					"name": "DECIMALS",
					"outputs": [
						{
							"internalType": "uint8",
							"name": "",
							"type": "uint8"
						}
					],
					"payable": false,
					"stateMutability": "view",
					"type": "function"
				},
				{
					"constant": true,
					"inputs": [],
					"name": "INITIAL_SUPPLY",
					"outputs": [
						{
							"internalType": "uint256",
							"name": "",
							"type": "uint256"
						}
					],
					"payable": false,
					"stateMutability": "view",
					"type": "function"
				},
				{
					"constant": true,
					"inputs": [
						{
							"internalType": "address",
							"name": "owner",
							"type": "address"
						},
						{
							"internalType": "address",
							"name": "spender",
							"type": "address"
						}
					],
					"name": "allowance",
					"outputs": [
						{
							"internalType": "uint256",
							"name": "",
							"type": "uint256"
						}
					],
					"payable": false,
					"stateMutability": "view",
					"type": "function"
				},
				{
					"constant": false,
					"inputs": [
						{
							"internalType": "address",
							"name": "spender",
							"type": "address"
						},
						{
							"internalType": "uint256",
							"name": "value",
							"type": "uint256"
						}
					],
					"name": "approve",
					"outputs": [
						{
							"internalType": "bool",
							"name": "",
							"type": "bool"
						}
					],
					"payable": false,
					"stateMutability": "nonpayable",
					"type": "function"
				},
				{
					"constant": true,
					"inputs": [
						{
							"internalType": "address",
							"name": "account",
							"type": "address"
						}
					],
					"name": "balanceOf",
					"outputs": [
						{
							"internalType": "uint256",
							"name": "",
							"type": "uint256"
						}
					],
					"payable": false,
					"stateMutability": "view",
					"type": "function"
				},
				{
					"constant": true,
					"inputs": [],
					"name": "decimals",
					"outputs": [
						{
							"internalType": "uint8",
							"name": "",
							"type": "uint8"
						}
					],
					"payable": false,
					"stateMutability": "view",
					"type": "function"
				},
				{
					"constant": false,
					"inputs": [
						{
							"internalType": "address",
							"name": "spender",
							"type": "address"
						},
						{
							"internalType": "uint256",
							"name": "subtractedValue",
							"type": "uint256"
						}
					],
					"name": "decreaseAllowance",
					"outputs": [
						{
							"internalType": "bool",
							"name": "",
							"type": "bool"
						}
					],
					"payable": false,
					"stateMutability": "nonpayable",
					"type": "function"
				},
				{
					"constant": false,
					"inputs": [
						{
							"internalType": "address",
							"name": "spender",
							"type": "address"
						},
						{
							"internalType": "uint256",
							"name": "addedValue",
							"type": "uint256"
						}
					],
					"name": "increaseAllowance",
					"outputs": [
						{
							"internalType": "bool",
							"name": "",
							"type": "bool"
						}
					],
					"payable": false,
					"stateMutability": "nonpayable",
					"type": "function"
				},
				{
					"constant": true,
					"inputs": [],
					"name": "name",
					"outputs": [
						{
							"internalType": "string",
							"name": "",
							"type": "string"
						}
					],
					"payable": false,
					"stateMutability": "view",
					"type": "function"
				},
				{
					"constant": true,
					"inputs": [],
					"name": "symbol",
					"outputs": [
						{
							"internalType": "string",
							"name": "",
							"type": "string"
						}
					],
					"payable": false,
					"stateMutability": "view",
					"type": "function"
				},
				{
					"constant": true,
					"inputs": [],
					"name": "totalSupply",
					"outputs": [
						{
							"internalType": "uint256",
							"name": "",
							"type": "uint256"
						}
					],
					"payable": false,
					"stateMutability": "view",
					"type": "function"
				},
				{
					"constant": false,
					"inputs": [
						{
							"internalType": "address",
							"name": "recipient",
							"type": "address"
						},
						{
							"internalType": "uint256",
							"name": "amount",
							"type": "uint256"
						}
					],
					"name": "transfer",
					"outputs": [
						{
							"internalType": "bool",
							"name": "",
							"type": "bool"
						}
					],
					"payable": false,
					"stateMutability": "nonpayable",
					"type": "function"
				},
				{
					"constant": false,
					"inputs": [
						{
							"internalType": "address",
							"name": "sender",
							"type": "address"
						},
						{
							"internalType": "address",
							"name": "recipient",
							"type": "address"
						},
						{
							"internalType": "uint256",
							"name": "amount",
							"type": "uint256"
						}
					],
					"name": "transferFrom",
					"outputs": [
						{
							"internalType": "bool",
							"name": "",
							"type": "bool"
						}
					],
					"payable": false,
					"stateMutability": "nonpayable",
					"type": "function"
				}
			],
			"devdoc": {
				"details": "Very simple ERC20 Token example, where all tokens are pre-assigned to the creator. Note they can later distribute these tokens as they wish using `transfer` and other `ERC20` functions.",
				"methods": {
					"allowance(address,address)": {
						"details": "See `IERC20.allowance`."
					},
					"approve(address,uint256)": {
						"details": "See `IERC20.approve`.     * Requirements:     * - `spender` cannot be the zero address."
					},
					"balanceOf(address)": {
						"details": "See `IERC20.balanceOf`."
					},
					"constructor": {
						"details": "Constructor that gives msg.sender all of existing tokens."
					},
					"decimals()": {
						"details": "Returns the number of decimals used to get its user representation. For example, if `decimals` equals `2`, a balance of `505` tokens should be displayed to a user as `5,05` (`505 / 10 ** 2`).     * Tokens usually opt for a value of 18, imitating the relationship between Ether and Wei.     * > Note that this information is only used for _display_ purposes: it in no way affects any of the arithmetic of the contract, including `IERC20.balanceOf` and `IERC20.transfer`."
					},
					"decreaseAllowance(address,uint256)": {
						"details": "Atomically decreases the allowance granted to `spender` by the caller.     * This is an alternative to `approve` that can be used as a mitigation for problems described in `IERC20.approve`.     * Emits an `Approval` event indicating the updated allowance.     * Requirements:     * - `spender` cannot be the zero address. - `spender` must have allowance for the caller of at least `subtractedValue`."
					},
					"increaseAllowance(address,uint256)": {
						"details": "Atomically increases the allowance granted to `spender` by the caller.     * This is an alternative to `approve` that can be used as a mitigation for problems described in `IERC20.approve`.     * Emits an `Approval` event indicating the updated allowance.     * Requirements:     * - `spender` cannot be the zero address."
					},
					"name()": {
						"details": "Returns the name of the token."
					},
					"symbol()": {
						"details": "Returns the symbol of the token, usually a shorter version of the name."
					},
					"totalSupply()": {
						"details": "See `IERC20.totalSupply`."
					},
					"transfer(address,uint256)": {
						"details": "See `IERC20.transfer`.     * Requirements:     * - `recipient` cannot be the zero address. - the caller must have a balance of at least `amount`."
					},
					"transferFrom(address,address,uint256)": {
						"details": "See `IERC20.transferFrom`.     * Emits an `Approval` event indicating the updated allowance. This is not required by the EIP. See the note at the beginning of `ERC20`;     * Requirements: - `sender` and `recipient` cannot be the zero address. - `sender` must have a balance of at least `value`. - the caller must have allowance for `sender`'s tokens of at least `amount`."
					}
				},
				"title": "SimpleToken"
			},
			"evm": {
				"assembly": "    /* \"github.com/OpenZeppelin/openzeppelin-contracts/blob/v2.3.0/contracts/examples/SimpleToken.sol#L20\":334:713  contract SimpleToken is ERC20, ERC20Detailed {... */\n  mstore(0x40, 0x80)\n    /* \"github.com/OpenZeppelin/openzeppelin-contracts/blob/v2.3.0/contracts/examples/SimpleToken.sol#L20\":593:711  constructor () public ERC20Detailed(\"SimpleToken\", \"SIM\", DECIMALS) {... */\n  callvalue\n    /* \"--CODEGEN--\":8:17   */\n  dup1\n    /* \"--CODEGEN--\":5:7   */\n  iszero\n  tag_1\n  jumpi\n    /* \"--CODEGEN--\":30:31   */\n  0x00\n    /* \"--CODEGEN--\":27:28   */\n  dup1\n    /* \"--CODEGEN--\":20:32   */\n  revert\n    /* \"--CODEGEN--\":5:7   */\ntag_1:\n    /* \"github.com/OpenZeppelin/openzeppelin-contracts/blob/v2.3.0/contracts/examples/SimpleToken.sol#L20\":593:711  constructor () public ERC20Detailed(\"SimpleToken\", \"SIM\", DECIMALS) {... */\n  pop\n    /* \"github.com/OpenZeppelin/openzeppelin-contracts/blob/v2.3.0/contracts/token/ERC20/ERC20Detailed.sol\":416:579  constructor (string memory name, string memory symbol, uint8 decimals) public {... */\n  mload(0x40)\n  dup1\n  0x40\n  add\n  0x40\n  mstore\n  dup1\n  0x0b\n  dup2\n  mstore\n  0x20\n  add\n  0x53696d706c65546f6b656e000000000000000000000000000000000000000000\n  dup2\n  mstore\n  pop\n  mload(0x40)\n  dup1\n  0x40\n  add\n  0x40\n  mstore\n  dup1\n  0x03\n  dup2\n  mstore\n  0x20\n  add\n  0x53494d0000000000000000000000000000000000000000000000000000000000\n  dup2\n  mstore\n  pop\n    /* \"github.com/OpenZeppelin/openzeppelin-contracts/blob/v2.3.0/contracts/examples/SimpleToken.sol#L20\":418:420  18 */\n  0x12\n    /* \"github.com/OpenZeppelin/openzeppelin-contracts/blob/v2.3.0/contracts/token/ERC20/ERC20Detailed.sol\":512:516  name */\n  dup3\n    /* \"github.com/OpenZeppelin/openzeppelin-contracts/blob/v2.3.0/contracts/token/ERC20/ERC20Detailed.sol\":504:509  _name */\n  0x03\n    /* \"github.com/OpenZeppelin/openzeppelin-contracts/blob/v2.3.0/contracts/token/ERC20/ERC20Detailed.sol\":504:516  _name = name */\n  swap1\n  dup1\n  mload\n  swap1\n  0x20\n  add\n  swap1\n  tag_5\n  swap3\n  swap2\n  swap1\n  tag_6\n  jump\t// in\ntag_5:\n  pop\n    /* \"github.com/OpenZeppelin/openzeppelin-contracts/blob/v2.3.0/contracts/token/ERC20/ERC20Detailed.sol\":536:542  symbol */\n  dup2\n    /* \"github.com/OpenZeppelin/openzeppelin-contracts/blob/v2.3.0/contracts/token/ERC20/ERC20Detailed.sol\":526:533  _symbol */\n  0x04\n    /* \"github.com/OpenZeppelin/openzeppelin-contracts/blob/v2.3.0/contracts/token/ERC20/ERC20Detailed.sol\":526:542  _symbol = symbol */\n  swap1\n  dup1\n  mload\n  swap1\n  0x20\n  add\n  swap1\n  tag_7\n  swap3\n  swap2\n  swap1\n  tag_6\n  jump\t// in\ntag_7:\n  pop\n    /* \"github.com/OpenZeppelin/openzeppelin-contracts/blob/v2.3.0/contracts/token/ERC20/ERC20Detailed.sol\":564:572  decimals */\n  dup1\n    /* \"github.com/OpenZeppelin/openzeppelin-contracts/blob/v2.3.0/contracts/token/ERC20/ERC20Detailed.sol\":552:561  _decimals */\n  0x05\n  0x00\n    /* \"github.com/OpenZeppelin/openzeppelin-contracts/blob/v2.3.0/contracts/token/ERC20/ERC20Detailed.sol\":552:572  _decimals = decimals */\n  0x0100\n  exp\n  dup2\n  sload\n  dup2\n  0xff\n  mul\n  not\n  and\n  swap1\n  dup4\n  0xff\n  and\n  mul\n  or\n  swap1\n  sstore\n  pop\n    /* \"github.com/OpenZeppelin/openzeppelin-contracts/blob/v2.3.0/contracts/token/ERC20/ERC20Detailed.sol\":416:579  constructor (string memory name, string memory symbol, uint8 decimals) public {... */\n  pop\n  pop\n  pop\n    /* \"github.com/OpenZeppelin/openzeppelin-contracts/blob/v2.3.0/contracts/examples/SimpleToken.sol#L20\":671:704  _mint(msg.sender, INITIAL_SUPPLY) */\n  tag_9\n    /* \"github.com/OpenZeppelin/openzeppelin-contracts/blob/v2.3.0/contracts/examples/SimpleToken.sol#L20\":677:687  msg.sender */\n  caller\n    /* \"github.com/OpenZeppelin/openzeppelin-contracts/blob/v2.3.0/contracts/examples/SimpleToken.sol#L20\":418:420  18 */\n  0x12\n    /* \"github.com/OpenZeppelin/openzeppelin-contracts/blob/v2.3.0/contracts/examples/SimpleToken.sol#L20\":482:499  uint256(DECIMALS) */\n  0xff\n  and\n    /* \"github.com/OpenZeppelin/openzeppelin-contracts/blob/v2.3.0/contracts/examples/SimpleToken.sol#L20\":476:478  10 */\n  0x0a\n    /* \"github.com/OpenZeppelin/openzeppelin-contracts/blob/v2.3.0/contracts/examples/SimpleToken.sol#L20\":476:499  10 ** uint256(DECIMALS) */\n  exp\n    /* \"github.com/OpenZeppelin/openzeppelin-contracts/blob/v2.3.0/contracts/examples/SimpleToken.sol#L20\":467:472  10000 */\n  0x2710\n    /* \"github.com/OpenZeppelin/openzeppelin-contracts/blob/v2.3.0/contracts/examples/SimpleToken.sol#L20\":467:500  10000 * (10 ** uint256(DECIMALS)) */\n  mul\n    /* \"github.com/OpenZeppelin/openzeppelin-contracts/blob/v2.3.0/contracts/examples/SimpleToken.sol#L20\":671:676  _mint */\n  shl(0x20, tag_10)\n    /* \"github.com/OpenZeppelin/openzeppelin-contracts/blob/v2.3.0/contracts/examples/SimpleToken.sol#L20\":671:704  _mint(msg.sender, INITIAL_SUPPLY) */\n  0x20\n  shr\n  jump\t// in\ntag_9:\n    /* \"github.com/OpenZeppelin/openzeppelin-contracts/blob/v2.3.0/contracts/examples/SimpleToken.sol#L20\":334:713  contract SimpleToken is ERC20, ERC20Detailed {... */\n  jump(tag_11)\n    /* \"github.com/OpenZeppelin/openzeppelin-contracts/blob/v2.3.0/contracts/token/ERC20/ERC20.sol\":5771:6073  function _mint(address account, uint256 amount) internal {... */\ntag_10:\n    /* \"github.com/OpenZeppelin/openzeppelin-contracts/blob/v2.3.0/contracts/token/ERC20/ERC20.sol\":5865:5866  0 */\n  0x00\n    /* \"github.com/OpenZeppelin/openzeppelin-contracts/blob/v2.3.0/contracts/token/ERC20/ERC20.sol\":5846:5867  account != address(0) */\n  0xffffffffffffffffffffffffffffffffffffffff\n  and\n    /* \"github.com/OpenZeppelin/openzeppelin-contracts/blob/v2.3.0/contracts/token/ERC20/ERC20.sol\":5846:5853  account */\n  dup3\n    /* \"github.com/OpenZeppelin/openzeppelin-contracts/blob/v2.3.0/contracts/token/ERC20/ERC20.sol\":5846:5867  account != address(0) */\n  0xffffffffffffffffffffffffffffffffffffffff\n  and\n  eq\n  iszero\n    /* \"github.com/OpenZeppelin/openzeppelin-contracts/blob/v2.3.0/contracts/token/ERC20/ERC20.sol\":5838:5903  require(account != address(0), \"ERC20: mint to the zero address\") */\n  tag_13\n  jumpi\n  mload(0x40)\n  0x08c379a000000000000000000000000000000000000000000000000000000000\n  dup2\n  mstore\n  0x04\n  add\n  dup1\n  dup1\n  0x20\n  add\n  dup3\n  dup2\n  sub\n  dup3\n  mstore\n  0x1f\n  dup2\n  mstore\n  0x20\n  add\n  dup1\n  0x45524332303a206d696e7420746f20746865207a65726f206164647265737300\n  dup2\n  mstore\n  pop\n  0x20\n  add\n  swap2\n  pop\n  pop\n  mload(0x40)\n  dup1\n  swap2\n  sub\n  swap1\n  revert\ntag_13:\n    /* \"github.com/OpenZeppelin/openzeppelin-contracts/blob/v2.3.0/contracts/token/ERC20/ERC20.sol\":5929:5953  _totalSupply.add(amount) */\n  tag_14\n    /* \"github.com/OpenZeppelin/openzeppelin-contracts/blob/v2.3.0/contracts/token/ERC20/ERC20.sol\":5946:5952  amount */\n  dup2\n    /* \"github.com/OpenZeppelin/openzeppelin-contracts/blob/v2.3.0/contracts/token/ERC20/ERC20.sol\":5929:5941  _totalSupply */\n  sload(0x02)\n    /* \"github.com/OpenZeppelin/openzeppelin-contracts/blob/v2.3.0/contracts/token/ERC20/ERC20.sol\":5929:5945  _totalSupply.add */\n  or(tag_0_77, shl(0x20, tag_15))\n  swap1\n    /* \"github.com/OpenZeppelin/openzeppelin-contracts/blob/v2.3.0/contracts/token/ERC20/ERC20.sol\":5929:5953  _totalSupply.add(amount) */\n  swap2\n  swap1\n  0x20\n  shr\n  jump\t// in\ntag_14:\n    /* \"github.com/OpenZeppelin/openzeppelin-contracts/blob/v2.3.0/contracts/token/ERC20/ERC20.sol\":5914:5926  _totalSupply */\n  0x02\n    /* \"github.com/OpenZeppelin/openzeppelin-contracts/blob/v2.3.0/contracts/token/ERC20/ERC20.sol\":5914:5953  _totalSupply = _totalSupply.add(amount) */\n  dup2\n  swap1\n  sstore\n  pop\n    /* \"github.com/OpenZeppelin/openzeppelin-contracts/blob/v2.3.0/contracts/token/ERC20/ERC20.sol\":5984:6014  _balances[account].add(amount) */\n  tag_16\n    /* \"github.com/OpenZeppelin/openzeppelin-contracts/blob/v2.3.0/contracts/token/ERC20/ERC20.sol\":6007:6013  amount */\n  dup2\n    /* \"github.com/OpenZeppelin/openzeppelin-contracts/blob/v2.3.0/contracts/token/ERC20/ERC20.sol\":5984:5993  _balances */\n  0x00\n    /* \"github.com/OpenZeppelin/openzeppelin-contracts/blob/v2.3.0/contracts/token/ERC20/ERC20.sol\":5984:6002  _balances[account] */\n  dup1\n    /* \"github.com/OpenZeppelin/openzeppelin-contracts/blob/v2.3.0/contracts/token/ERC20/ERC20.sol\":5994:6001  account */\n  dup6\n    /* \"github.com/OpenZeppelin/openzeppelin-contracts/blob/v2.3.0/contracts/token/ERC20/ERC20.sol\":5984:6002  _balances[account] */\n  0xffffffffffffffffffffffffffffffffffffffff\n  and\n  0xffffffffffffffffffffffffffffffffffffffff\n  and\n  dup2\n  mstore\n  0x20\n  add\n  swap1\n  dup2\n  mstore\n  0x20\n  add\n  0x00\n  keccak256\n  sload\n    /* \"github.com/OpenZeppelin/openzeppelin-contracts/blob/v2.3.0/contracts/token/ERC20/ERC20.sol\":5984:6006  _balances[account].add */\n  or(tag_0_77, shl(0x20, tag_15))\n  swap1\n    /* \"github.com/OpenZeppelin/openzeppelin-contracts/blob/v2.3.0/contracts/token/ERC20/ERC20.sol\":5984:6014  _balances[account].add(amount) */\n  swap2\n  swap1\n  0x20\n  shr\n  jump\t// in\ntag_16:\n    /* \"github.com/OpenZeppelin/openzeppelin-contracts/blob/v2.3.0/contracts/token/ERC20/ERC20.sol\":5963:5972  _balances */\n  0x00\n    /* \"github.com/OpenZeppelin/openzeppelin-contracts/blob/v2.3.0/contracts/token/ERC20/ERC20.sol\":5963:5981  _balances[account] */\n  dup1\n    /* \"github.com/OpenZeppelin/openzeppelin-contracts/blob/v2.3.0/contracts/token/ERC20/ERC20.sol\":5973:5980  account */\n  dup5\n    /* \"github.com/OpenZeppelin/openzeppelin-contracts/blob/v2.3.0/contracts/token/ERC20/ERC20.sol\":5963:5981  _balances[account] */\n  0xffffffffffffffffffffffffffffffffffffffff\n  and\n  0xffffffffffffffffffffffffffffffffffffffff\n  and\n  dup2\n  mstore\n  0x20\n  add\n  swap1\n  dup2\n  mstore\n  0x20\n  add\n  0x00\n  keccak256\n    /* \"github.com/OpenZeppelin/openzeppelin-contracts/blob/v2.3.0/contracts/token/ERC20/ERC20.sol\":5963:6014  _balances[account] = _balances[account].add(amount) */\n  dup2\n  swap1\n  sstore\n  pop\n    /* \"github.com/OpenZeppelin/openzeppelin-contracts/blob/v2.3.0/contracts/token/ERC20/ERC20.sol\":6050:6057  account */\n  dup2\n    /* \"github.com/OpenZeppelin/openzeppelin-contracts/blob/v2.3.0/contracts/token/ERC20/ERC20.sol\":6029:6066  Transfer(address(0), account, amount) */\n  0xffffffffffffffffffffffffffffffffffffffff\n  and\n    /* \"github.com/OpenZeppelin/openzeppelin-contracts/blob/v2.3.0/contracts/token/ERC20/ERC20.sol\":6046:6047  0 */\n  0x00\n    /* \"github.com/OpenZeppelin/openzeppelin-contracts/blob/v2.3.0/contracts/token/ERC20/ERC20.sol\":6029:6066  Transfer(address(0), account, amount) */\n  0xffffffffffffffffffffffffffffffffffffffff\n  and\n  0xddf252ad1be2c89b69c2b068fc378daa952ba7f163c4a11628f55a4df523b3ef\n    /* \"github.com/OpenZeppelin/openzeppelin-contracts/blob/v2.3.0/contracts/token/ERC20/ERC20.sol\":6059:6065  amount */\n  dup4\n    /* \"github.com/OpenZeppelin/openzeppelin-contracts/blob/v2.3.0/contracts/token/ERC20/ERC20.sol\":6029:6066  Transfer(address(0), account, amount) */\n  mload(0x40)\n  dup1\n  dup3\n  dup2\n  mstore\n  0x20\n  add\n  swap2\n  pop\n  pop\n  mload(0x40)\n  dup1\n  swap2\n  sub\n  swap1\n  log3\n    /* \"github.com/OpenZeppelin/openzeppelin-contracts/blob/v2.3.0/contracts/token/ERC20/ERC20.sol\":5771:6073  function _mint(address account, uint256 amount) internal {... */\n  pop\n  pop\n  jump\t// out\n    /* \"github.com/OpenZeppelin/openzeppelin-contracts/blob/v2.3.0/contracts/math/SafeMath.sol\":834:1010  function add(uint256 a, uint256 b) internal pure returns (uint256) {... */\ntag_15:\n    /* \"github.com/OpenZeppelin/openzeppelin-contracts/blob/v2.3.0/contracts/math/SafeMath.sol\":892:899  uint256 */\n  0x00\n    /* \"github.com/OpenZeppelin/openzeppelin-contracts/blob/v2.3.0/contracts/math/SafeMath.sol\":911:920  uint256 c */\n  dup1\n    /* \"github.com/OpenZeppelin/openzeppelin-contracts/blob/v2.3.0/contracts/math/SafeMath.sol\":927:928  b */\n  dup3\n    /* \"github.com/OpenZeppelin/openzeppelin-contracts/blob/v2.3.0/contracts/math/SafeMath.sol\":923:924  a */\n  dup5\n    /* \"github.com/OpenZeppelin/openzeppelin-contracts/blob/v2.3.0/contracts/math/SafeMath.sol\":923:928  a + b */\n  add\n    /* \"github.com/OpenZeppelin/openzeppelin-contracts/blob/v2.3.0/contracts/math/SafeMath.sol\":911:928  uint256 c = a + b */\n  swap1\n  pop\n    /* \"github.com/OpenZeppelin/openzeppelin-contracts/blob/v2.3.0/contracts/math/SafeMath.sol\":951:952  a */\n  dup4\n    /* \"github.com/OpenZeppelin/openzeppelin-contracts/blob/v2.3.0/contracts/math/SafeMath.sol\":946:947  c */\n  dup2\n    /* \"github.com/OpenZeppelin/openzeppelin-contracts/blob/v2.3.0/contracts/math/SafeMath.sol\":946:952  c >= a */\n  lt\n  iszero\n    /* \"github.com/OpenZeppelin/openzeppelin-contracts/blob/v2.3.0/contracts/math/SafeMath.sol\":938:984  require(c >= a, \"SafeMath: addition overflow\") */\n  tag_18\n  jumpi\n  mload(0x40)\n  0x08c379a000000000000000000000000000000000000000000000000000000000\n  dup2\n  mstore\n  0x04\n  add\n  dup1\n  dup1\n  0x20\n  add\n  dup3\n  dup2\n  sub\n  dup3\n  mstore\n  0x1b\n  dup2\n  mstore\n  0x20\n  add\n  dup1\n  0x536166654d6174683a206164646974696f6e206f766572666c6f770000000000\n  dup2\n  mstore\n  pop\n  0x20\n  add\n  swap2\n  pop\n  pop\n  mload(0x40)\n  dup1\n  swap2\n  sub\n  swap1\n  revert\ntag_18:\n    /* \"github.com/OpenZeppelin/openzeppelin-contracts/blob/v2.3.0/contracts/math/SafeMath.sol\":1002:1003  c */\n  dup1\n    /* \"github.com/OpenZeppelin/openzeppelin-contracts/blob/v2.3.0/contracts/math/SafeMath.sol\":995:1003  return c */\n  swap2\n  pop\n  pop\n    /* \"github.com/OpenZeppelin/openzeppelin-contracts/blob/v2.3.0/contracts/math/SafeMath.sol\":834:1010  function add(uint256 a, uint256 b) internal pure returns (uint256) {... */\n  swap3\n  swap2\n  pop\n  pop\n  jump\t// out\n    /* \"github.com/OpenZeppelin/openzeppelin-contracts/blob/v2.3.0/contracts/examples/SimpleToken.sol#L20\":334:713  contract SimpleToken is ERC20, ERC20Detailed {... */\ntag_6:\n  dup3\n  dup1\n  sload\n  0x01\n  dup2\n  0x01\n  and\n  iszero\n  0x0100\n  mul\n  sub\n  and\n  0x02\n  swap1\n  div\n  swap1\n  0x00\n  mstore\n  keccak256(0x00, 0x20)\n  swap1\n  0x1f\n  add\n  0x20\n  swap1\n  div\n  dup2\n  add\n  swap3\n  dup3\n  0x1f\n  lt\n  tag_20\n  jumpi\n  dup1\n  mload\n  not(0xff)\n  and\n  dup4\n  dup1\n  add\n  or\n  dup6\n  sstore\n  jump(tag_19)\ntag_20:\n  dup3\n  dup1\n  add\n  0x01\n  add\n  dup6\n  sstore\n  dup3\n  iszero\n  tag_19\n  jumpi\n  swap2\n  dup3\n  add\ntag_21:\n  dup3\n  dup2\n  gt\n  iszero\n  tag_22\n  jumpi\n  dup3\n  mload\n  dup3\n  sstore\n  swap2\n  0x20\n  add\n  swap2\n  swap1\n  0x01\n  add\n  swap1\n  jump(tag_21)\ntag_22:\ntag_19:\n  pop\n  swap1\n  pop\n  tag_23\n  swap2\n  swap1\n  tag_24\n  jump\t// in\ntag_23:\n  pop\n  swap1\n  jump\t// out\ntag_24:\n  tag_25\n  swap2\n  swap1\ntag_26:\n  dup1\n  dup3\n  gt\n  iszero\n  tag_27\n  jumpi\n  0x00\n  dup2\n  0x00\n  swap1\n  sstore\n  pop\n  0x01\n  add\n  jump(tag_26)\ntag_27:\n  pop\n  swap1\n  jump\ntag_25:\n  swap1\n  jump\t// out\ntag_11:\n  dataSize(sub_0)\n  dup1\n  dataOffset(sub_0)\n  0x00\n  codecopy\n  0x00\n  return\nstop\n\nsub_0: assembly {\n        /* \"github.com/OpenZeppelin/openzeppelin-contracts/blob/v2.3.0/contracts/examples/SimpleToken.sol#L20\":334:713  contract SimpleToken is ERC20, ERC20Detailed {... */\n      mstore(0x40, 0x80)\n      callvalue\n        /* \"--CODEGEN--\":8:17   */\n      dup1\n        /* \"--CODEGEN--\":5:7   */\n      iszero\n      tag_1\n      jumpi\n        /* \"--CODEGEN--\":30:31   */\n      0x00\n        /* \"--CODEGEN--\":27:28   */\n      dup1\n        /* \"--CODEGEN--\":20:32   */\n      revert\n        /* \"--CODEGEN--\":5:7   */\n    tag_1:\n        /* \"github.com/OpenZeppelin/openzeppelin-contracts/blob/v2.3.0/contracts/examples/SimpleToken.sol#L20\":334:713  contract SimpleToken is ERC20, ERC20Detailed {... */\n      pop\n      jumpi(tag_2, lt(calldatasize, 0x04))\n      shr(0xe0, calldataload(0x00))\n      dup1\n      0x313ce567\n      gt\n      tag_16\n      jumpi\n      dup1\n      0x95d89b41\n      gt\n      tag_17\n      jumpi\n      dup1\n      0x95d89b41\n      eq\n      tag_12\n      jumpi\n      dup1\n      0xa457c2d7\n      eq\n      tag_13\n      jumpi\n      dup1\n      0xa9059cbb\n      eq\n      tag_14\n      jumpi\n      dup1\n      0xdd62ed3e\n      eq\n      tag_15\n      jumpi\n      jump(tag_2)\n    tag_17:\n      dup1\n      0x313ce567\n      eq\n      tag_9\n      jumpi\n      dup1\n      0x39509351\n      eq\n      tag_10\n      jumpi\n      dup1\n      0x70a08231\n      eq\n      tag_11\n      jumpi\n      jump(tag_2)\n    tag_16:\n      dup1\n      0x06fdde03\n      eq\n      tag_3\n      jumpi\n      dup1\n      0x095ea7b3\n      eq\n      tag_4\n      jumpi\n      dup1\n      0x18160ddd\n      eq\n      tag_5\n      jumpi\n      dup1\n      0x23b872dd\n      eq\n      tag_6\n      jumpi\n      dup1\n      0x2e0f2625\n      eq\n      tag_7\n      jumpi\n      dup1\n      0x2ff2e9dc\n      eq\n      tag_8\n      jumpi\n    tag_2:\n      0x00\n      dup1\n      revert\n        /* \"github.com/OpenZeppelin/openzeppelin-contracts/blob/v2.3.0/contracts/token/ERC20/ERC20Detailed.sol\":644:725  function name() public view returns (string memory) {... */\n    tag_3:\n      tag_18\n      tag_19\n      jump\t// in\n    tag_18:\n      mload(0x40)\n      dup1\n      dup1\n      0x20\n      add\n      dup3\n      dup2\n      sub\n      dup3\n      mstore\n      dup4\n      dup2\n      dup2\n      mload\n      dup2\n      mstore\n      0x20\n      add\n      swap2\n      pop\n      dup1\n      mload\n      swap1\n      0x20\n      add\n      swap1\n      dup1\n      dup4\n      dup4\n        /* \"--CODEGEN--\":23:24   */\n      0x00\n        /* \"--CODEGEN--\":8:108   */\n    tag_20:\n        /* \"--CODEGEN--\":33:36   */\n      dup4\n        /* \"--CODEGEN--\":30:31   */\n      dup2\n        /* \"--CODEGEN--\":27:37   */\n      lt\n        /* \"--CODEGEN--\":8:108   */\n      iszero\n      tag_22\n      jumpi\n        /* \"--CODEGEN--\":99:100   */\n      dup1\n        /* \"--CODEGEN--\":94:97   */\n      dup3\n        /* \"--CODEGEN--\":90:101   */\n      add\n        /* \"--CODEGEN--\":84:102   */\n      mload\n        /* \"--CODEGEN--\":80:81   */\n      dup2\n        /* \"--CODEGEN--\":75:78   */\n      dup5\n        /* \"--CODEGEN--\":71:82   */\n      add\n        /* \"--CODEGEN--\":64:103   */\n      mstore\n        /* \"--CODEGEN--\":52:54   */\n      0x20\n        /* \"--CODEGEN--\":49:50   */\n      dup2\n        /* \"--CODEGEN--\":45:55   */\n      add\n        /* \"--CODEGEN--\":40:55   */\n      swap1\n      pop\n        /* \"--CODEGEN--\":8:108   */\n      jump(tag_20)\n    tag_22:\n        /* \"--CODEGEN--\":12:26   */\n      pop\n        /* \"github.com/OpenZeppelin/openzeppelin-contracts/blob/v2.3.0/contracts/token/ERC20/ERC20Detailed.sol\":644:725  function name() public view returns (string memory) {... */\n      pop\n      pop\n      pop\n      swap1\n      pop\n      swap1\n      dup2\n      add\n      swap1\n      0x1f\n      and\n      dup1\n      iszero\n      tag_23\n      jumpi\n      dup1\n      dup3\n      sub\n      dup1\n      mload\n      0x01\n      dup4\n      0x20\n      sub\n      0x0100\n      exp\n      sub\n      not\n      and\n      dup2\n      mstore\n      0x20\n      add\n      swap2\n      pop\n    tag_23:\n      pop\n      swap3\n      pop\n      pop\n      pop\n      mload(0x40)\n      dup1\n      swap2\n      sub\n      swap1\n      return\n        /* \"github.com/OpenZeppelin/openzeppelin-contracts/blob/v2.3.0/contracts/token/ERC20/ERC20.sol\":2453:2598  function approve(address spender, uint256 value) public returns (bool) {... */\n    tag_4:\n      tag_24\n      0x04\n      dup1\n      calldatasize\n      sub\n        /* \"--CODEGEN--\":13:15   */\n      0x40\n        /* \"--CODEGEN--\":8:11   */\n      dup2\n        /* \"--CODEGEN--\":5:16   */\n      lt\n        /* \"--CODEGEN--\":2:4   */\n      iszero\n      tag_25\n      jumpi\n        /* \"--CODEGEN--\":29:30   */\n      0x00\n        /* \"--CODEGEN--\":26:27   */\n      dup1\n        /* \"--CODEGEN--\":19:31   */\n      revert\n        /* \"--CODEGEN--\":2:4   */\n    tag_25:\n        /* \"github.com/OpenZeppelin/openzeppelin-contracts/blob/v2.3.0/contracts/token/ERC20/ERC20.sol\":2453:2598  function approve(address spender, uint256 value) public returns (bool) {... */\n      dup2\n      add\n      swap1\n      dup1\n      dup1\n      calldataload\n      0xffffffffffffffffffffffffffffffffffffffff\n      and\n      swap1\n      0x20\n      add\n      swap1\n      swap3\n      swap2\n      swap1\n      dup1\n      calldataload\n      swap1\n      0x20\n      add\n      swap1\n      swap3\n      swap2\n      swap1\n      pop\n      pop\n      pop\n      tag_26\n      jump\t// in\n    tag_24:\n      mload(0x40)\n      dup1\n      dup3\n      iszero\n      iszero\n      iszero\n      iszero\n      dup2\n      mstore\n      0x20\n      add\n      swap2\n      pop\n      pop\n      mload(0x40)\n      dup1\n      swap2\n      sub\n      swap1\n      return\n        /* \"github.com/OpenZeppelin/openzeppelin-contracts/blob/v2.3.0/contracts/token/ERC20/ERC20.sol\":1514:1603  function totalSupply() public view returns (uint256) {... */\n    tag_5:\n      tag_27\n      tag_28\n      jump\t// in\n    tag_27:\n      mload(0x40)\n      dup1\n      dup3\n      dup2\n      mstore\n      0x20\n      add\n      swap2\n      pop\n      pop\n      mload(0x40)\n      dup1\n      swap2\n      sub\n      swap1\n      return\n        /* \"github.com/OpenZeppelin/openzeppelin-contracts/blob/v2.3.0/contracts/token/ERC20/ERC20.sol\":3055:3307  function transferFrom(address sender, address recipient, uint256 amount) public returns (bool) {... */\n    tag_6:\n      tag_29\n      0x04\n      dup1\n      calldatasize\n      sub\n        /* \"--CODEGEN--\":13:15   */\n      0x60\n        /* \"--CODEGEN--\":8:11   */\n      dup2\n        /* \"--CODEGEN--\":5:16   */\n      lt\n        /* \"--CODEGEN--\":2:4   */\n      iszero\n      tag_30\n      jumpi\n        /* \"--CODEGEN--\":29:30   */\n      0x00\n        /* \"--CODEGEN--\":26:27   */\n      dup1\n        /* \"--CODEGEN--\":19:31   */\n      revert\n        /* \"--CODEGEN--\":2:4   */\n    tag_30:\n        /* \"github.com/OpenZeppelin/openzeppelin-contracts/blob/v2.3.0/contracts/token/ERC20/ERC20.sol\":3055:3307  function transferFrom(address sender, address recipient, uint256 amount) public returns (bool) {... */\n      dup2\n      add\n      swap1\n      dup1\n      dup1\n      calldataload\n      0xffffffffffffffffffffffffffffffffffffffff\n      and\n      swap1\n      0x20\n      add\n      swap1\n      swap3\n      swap2\n      swap1\n      dup1\n      calldataload\n      0xffffffffffffffffffffffffffffffffffffffff\n      and\n      swap1\n      0x20\n      add\n      swap1\n      swap3\n      swap2\n      swap1\n      dup1\n      calldataload\n      swap1\n      0x20\n      add\n      swap1\n      swap3\n      swap2\n      swap1\n      pop\n      pop\n      pop\n      tag_31\n      jump\t// in\n    tag_29:\n      mload(0x40)\n      dup1\n      dup3\n      iszero\n      iszero\n      iszero\n      iszero\n      dup2\n      mstore\n      0x20\n      add\n      swap2\n      pop\n      pop\n      mload(0x40)\n      dup1\n      swap2\n      sub\n      swap1\n      return\n        /* \"github.com/OpenZeppelin/openzeppelin-contracts/blob/v2.3.0/contracts/examples/SimpleToken.sol#L20\":385:420  uint8 public constant DECIMALS = 18 */\n    tag_7:\n      tag_32\n      tag_33\n      jump\t// in\n    tag_32:\n      mload(0x40)\n      dup1\n      dup3\n      0xff\n      and\n      0xff\n      and\n      dup2\n      mstore\n      0x20\n      add\n      swap2\n      pop\n      pop\n      mload(0x40)\n      dup1\n      swap2\n      sub\n      swap1\n      return\n        /* \"github.com/OpenZeppelin/openzeppelin-contracts/blob/v2.3.0/contracts/examples/SimpleToken.sol#L20\":426:500  uint256 public constant INITIAL_SUPPLY = 10000 * (10 ** uint256(DECIMALS)) */\n    tag_8:\n      tag_34\n      tag_35\n      jump\t// in\n    tag_34:\n      mload(0x40)\n      dup1\n      dup3\n      dup2\n      mstore\n      0x20\n      add\n      swap2\n      pop\n      pop\n      mload(0x40)\n      dup1\n      swap2\n      sub\n      swap1\n      return\n        /* \"github.com/OpenZeppelin/openzeppelin-contracts/blob/v2.3.0/contracts/token/ERC20/ERC20Detailed.sol\":1478:1559  function decimals() public view returns (uint8) {... */\n    tag_9:\n      tag_36\n      tag_37\n      jump\t// in\n    tag_36:\n      mload(0x40)\n      dup1\n      dup3\n      0xff\n      and\n      0xff\n      and\n      dup2\n      mstore\n      0x20\n      add\n      swap2\n      pop\n      pop\n      mload(0x40)\n      dup1\n      swap2\n      sub\n      swap1\n      return\n        /* \"github.com/OpenZeppelin/openzeppelin-contracts/blob/v2.3.0/contracts/token/ERC20/ERC20.sol\":3702:3905  function increaseAllowance(address spender, uint256 addedValue) public returns (bool) {... */\n    tag_10:\n      tag_38\n      0x04\n      dup1\n      calldatasize\n      sub\n        /* \"--CODEGEN--\":13:15   */\n      0x40\n        /* \"--CODEGEN--\":8:11   */\n      dup2\n        /* \"--CODEGEN--\":5:16   */\n      lt\n        /* \"--CODEGEN--\":2:4   */\n      iszero\n      tag_39\n      jumpi\n        /* \"--CODEGEN--\":29:30   */\n      0x00\n        /* \"--CODEGEN--\":26:27   */\n      dup1\n        /* \"--CODEGEN--\":19:31   */\n      revert\n        /* \"--CODEGEN--\":2:4   */\n    tag_39:\n        /* \"github.com/OpenZeppelin/openzeppelin-contracts/blob/v2.3.0/contracts/token/ERC20/ERC20.sol\":3702:3905  function increaseAllowance(address spender, uint256 addedValue) public returns (bool) {... */\n      dup2\n      add\n      swap1\n      dup1\n      dup1\n      calldataload\n      0xffffffffffffffffffffffffffffffffffffffff\n      and\n      swap1\n      0x20\n      add\n      swap1\n      swap3\n      swap2\n      swap1\n      dup1\n      calldataload\n      swap1\n      0x20\n      add\n      swap1\n      swap3\n      swap2\n      swap1\n      pop\n      pop\n      pop\n      tag_40\n      jump\t// in\n    tag_38:\n      mload(0x40)\n      dup1\n      dup3\n      iszero\n      iszero\n      iszero\n      iszero\n      dup2\n      mstore\n      0x20\n      add\n      swap2\n      pop\n      pop\n      mload(0x40)\n      dup1\n      swap2\n      sub\n      swap1\n      return\n        /* \"github.com/OpenZeppelin/openzeppelin-contracts/blob/v2.3.0/contracts/token/ERC20/ERC20.sol\":1661:1769  function balanceOf(address account) public view returns (uint256) {... */\n    tag_11:\n      tag_41\n      0x04\n      dup1\n      calldatasize\n      sub\n        /* \"--CODEGEN--\":13:15   */\n      0x20\n        /* \"--CODEGEN--\":8:11   */\n      dup2\n        /* \"--CODEGEN--\":5:16   */\n      lt\n        /* \"--CODEGEN--\":2:4   */\n      iszero\n      tag_42\n      jumpi\n        /* \"--CODEGEN--\":29:30   */\n      0x00\n        /* \"--CODEGEN--\":26:27   */\n      dup1\n        /* \"--CODEGEN--\":19:31   */\n      revert\n        /* \"--CODEGEN--\":2:4   */\n    tag_42:\n        /* \"github.com/OpenZeppelin/openzeppelin-contracts/blob/v2.3.0/contracts/token/ERC20/ERC20.sol\":1661:1769  function balanceOf(address account) public view returns (uint256) {... */\n      dup2\n      add\n      swap1\n      dup1\n      dup1\n      calldataload\n      0xffffffffffffffffffffffffffffffffffffffff\n      and\n      swap1\n      0x20\n      add\n      swap1\n      swap3\n      swap2\n      swap1\n      pop\n      pop\n      pop\n      tag_43\n      jump\t// in\n    tag_41:\n      mload(0x40)\n      dup1\n      dup3\n      dup2\n      mstore\n      0x20\n      add\n      swap2\n      pop\n      pop\n      mload(0x40)\n      dup1\n      swap2\n      sub\n      swap1\n      return\n        /* \"github.com/OpenZeppelin/openzeppelin-contracts/blob/v2.3.0/contracts/token/ERC20/ERC20Detailed.sol\":838:923  function symbol() public view returns (string memory) {... */\n    tag_12:\n      tag_44\n      tag_45\n      jump\t// in\n    tag_44:\n      mload(0x40)\n      dup1\n      dup1\n      0x20\n      add\n      dup3\n      dup2\n      sub\n      dup3\n      mstore\n      dup4\n      dup2\n      dup2\n      mload\n      dup2\n      mstore\n      0x20\n      add\n      swap2\n      pop\n      dup1\n      mload\n      swap1\n      0x20\n      add\n      swap1\n      dup1\n      dup4\n      dup4\n        /* \"--CODEGEN--\":23:24   */\n      0x00\n        /* \"--CODEGEN--\":8:108   */\n    tag_46:\n        /* \"--CODEGEN--\":33:36   */\n      dup4\n        /* \"--CODEGEN--\":30:31   */\n      dup2\n        /* \"--CODEGEN--\":27:37   */\n      lt\n        /* \"--CODEGEN--\":8:108   */\n      iszero\n      tag_48\n      jumpi\n        /* \"--CODEGEN--\":99:100   */\n      dup1\n        /* \"--CODEGEN--\":94:97   */\n      dup3\n        /* \"--CODEGEN--\":90:101   */\n      add\n        /* \"--CODEGEN--\":84:102   */\n      mload\n        /* \"--CODEGEN--\":80:81   */\n      dup2\n        /* \"--CODEGEN--\":75:78   */\n      dup5\n        /* \"--CODEGEN--\":71:82   */\n      add\n        /* \"--CODEGEN--\":64:103   */\n      mstore\n        /* \"--CODEGEN--\":52:54   */\n      0x20\n        /* \"--CODEGEN--\":49:50   */\n      dup2\n        /* \"--CODEGEN--\":45:55   */\n      add\n        /* \"--CODEGEN--\":40:55   */\n      swap1\n      pop\n        /* \"--CODEGEN--\":8:108   */\n      jump(tag_46)\n    tag_48:\n        /* \"--CODEGEN--\":12:26   */\n      pop\n        /* \"github.com/OpenZeppelin/openzeppelin-contracts/blob/v2.3.0/contracts/token/ERC20/ERC20Detailed.sol\":838:923  function symbol() public view returns (string memory) {... */\n      pop\n      pop\n      pop\n      swap1\n      pop\n      swap1\n      dup2\n      add\n      swap1\n      0x1f\n      and\n      dup1\n      iszero\n      tag_49\n      jumpi\n      dup1\n      dup3\n      sub\n      dup1\n      mload\n      0x01\n      dup4\n      0x20\n      sub\n      0x0100\n      exp\n      sub\n      not\n      and\n      dup2\n      mstore\n      0x20\n      add\n      swap2\n      pop\n    tag_49:\n      pop\n      swap3\n      pop\n      pop\n      pop\n      mload(0x40)\n      dup1\n      swap2\n      sub\n      swap1\n      return\n        /* \"github.com/OpenZeppelin/openzeppelin-contracts/blob/v2.3.0/contracts/token/ERC20/ERC20.sol\":4392:4605  function decreaseAllowance(address spender, uint256 subtractedValue) public returns (bool) {... */\n    tag_13:\n      tag_50\n      0x04\n      dup1\n      calldatasize\n      sub\n        /* \"--CODEGEN--\":13:15   */\n      0x40\n        /* \"--CODEGEN--\":8:11   */\n      dup2\n        /* \"--CODEGEN--\":5:16   */\n      lt\n        /* \"--CODEGEN--\":2:4   */\n      iszero\n      tag_51\n      jumpi\n        /* \"--CODEGEN--\":29:30   */\n      0x00\n        /* \"--CODEGEN--\":26:27   */\n      dup1\n        /* \"--CODEGEN--\":19:31   */\n      revert\n        /* \"--CODEGEN--\":2:4   */\n    tag_51:\n        /* \"github.com/OpenZeppelin/openzeppelin-contracts/blob/v2.3.0/contracts/token/ERC20/ERC20.sol\":4392:4605  function decreaseAllowance(address spender, uint256 subtractedValue) public returns (bool) {... */\n      dup2\n      add\n      swap1\n      dup1\n      dup1\n      calldataload\n      0xffffffffffffffffffffffffffffffffffffffff\n      and\n      swap1\n      0x20\n      add\n      swap1\n      swap3\n      swap2\n      swap1\n      dup1\n      calldataload\n      swap1\n      0x20\n      add\n      swap1\n      swap3\n      swap2\n      swap1\n      pop\n      pop\n      pop\n      tag_52\n      jump\t// in\n    tag_50:\n      mload(0x40)\n      dup1\n      dup3\n      iszero\n      iszero\n      iszero\n      iszero\n      dup2\n      mstore\n      0x20\n      add\n      swap2\n      pop\n      pop\n      mload(0x40)\n      dup1\n      swap2\n      sub\n      swap1\n      return\n        /* \"github.com/OpenZeppelin/openzeppelin-contracts/blob/v2.3.0/contracts/token/ERC20/ERC20.sol\":1972:2125  function transfer(address recipient, uint256 amount) public returns (bool) {... */\n    tag_14:\n      tag_53\n      0x04\n      dup1\n      calldatasize\n      sub\n        /* \"--CODEGEN--\":13:15   */\n      0x40\n        /* \"--CODEGEN--\":8:11   */\n      dup2\n        /* \"--CODEGEN--\":5:16   */\n      lt\n        /* \"--CODEGEN--\":2:4   */\n      iszero\n      tag_54\n      jumpi\n        /* \"--CODEGEN--\":29:30   */\n      0x00\n        /* \"--CODEGEN--\":26:27   */\n      dup1\n        /* \"--CODEGEN--\":19:31   */\n      revert\n        /* \"--CODEGEN--\":2:4   */\n    tag_54:\n        /* \"github.com/OpenZeppelin/openzeppelin-contracts/blob/v2.3.0/contracts/token/ERC20/ERC20.sol\":1972:2125  function transfer(address recipient, uint256 amount) public returns (bool) {... */\n      dup2\n      add\n      swap1\n      dup1\n      dup1\n      calldataload\n      0xffffffffffffffffffffffffffffffffffffffff\n      and\n      swap1\n      0x20\n      add\n      swap1\n      swap3\n      swap2\n      swap1\n      dup1\n      calldataload\n      swap1\n      0x20\n      add\n      swap1\n      swap3\n      swap2\n      swap1\n      pop\n      pop\n      pop\n      tag_55\n      jump\t// in\n    tag_53:\n      mload(0x40)\n      dup1\n      dup3\n      iszero\n      iszero\n      iszero\n      iszero\n      dup2\n      mstore\n      0x20\n      add\n      swap2\n      pop\n      pop\n      mload(0x40)\n      dup1\n      swap2\n      sub\n      swap1\n      return\n        /* \"github.com/OpenZeppelin/openzeppelin-contracts/blob/v2.3.0/contracts/token/ERC20/ERC20.sol\":2183:2315  function allowance(address owner, address spender) public view returns (uint256) {... */\n    tag_15:\n      tag_56\n      0x04\n      dup1\n      calldatasize\n      sub\n        /* \"--CODEGEN--\":13:15   */\n      0x40\n        /* \"--CODEGEN--\":8:11   */\n      dup2\n        /* \"--CODEGEN--\":5:16   */\n      lt\n        /* \"--CODEGEN--\":2:4   */\n      iszero\n      tag_57\n      jumpi\n        /* \"--CODEGEN--\":29:30   */\n      0x00\n        /* \"--CODEGEN--\":26:27   */\n      dup1\n        /* \"--CODEGEN--\":19:31   */\n      revert\n        /* \"--CODEGEN--\":2:4   */\n    tag_57:\n        /* \"github.com/OpenZeppelin/openzeppelin-contracts/blob/v2.3.0/contracts/token/ERC20/ERC20.sol\":2183:2315  function allowance(address owner, address spender) public view returns (uint256) {... */\n      dup2\n      add\n      swap1\n      dup1\n      dup1\n      calldataload\n      0xffffffffffffffffffffffffffffffffffffffff\n      and\n      swap1\n      0x20\n      add\n      swap1\n      swap3\n      swap2\n      swap1\n      dup1\n      calldataload\n      0xffffffffffffffffffffffffffffffffffffffff\n      and\n      swap1\n      0x20\n      add\n      swap1\n      swap3\n      swap2\n      swap1\n      pop\n      pop\n      pop\n      tag_58\n      jump\t// in\n    tag_56:\n      mload(0x40)\n      dup1\n      dup3\n      dup2\n      mstore\n      0x20\n      add\n      swap2\n      pop\n      pop\n      mload(0x40)\n      dup1\n      swap2\n      sub\n      swap1\n      return\n        /* \"github.com/OpenZeppelin/openzeppelin-contracts/blob/v2.3.0/contracts/token/ERC20/ERC20Detailed.sol\":644:725  function name() public view returns (string memory) {... */\n    tag_19:\n        /* \"github.com/OpenZeppelin/openzeppelin-contracts/blob/v2.3.0/contracts/token/ERC20/ERC20Detailed.sol\":681:694  string memory */\n      0x60\n        /* \"github.com/OpenZeppelin/openzeppelin-contracts/blob/v2.3.0/contracts/token/ERC20/ERC20Detailed.sol\":713:718  _name */\n      0x03\n        /* \"github.com/OpenZeppelin/openzeppelin-contracts/blob/v2.3.0/contracts/token/ERC20/ERC20Detailed.sol\":706:718  return _name */\n      dup1\n      sload\n      0x01\n      dup2\n      0x01\n      and\n      iszero\n      0x0100\n      mul\n      sub\n      and\n      0x02\n      swap1\n      div\n      dup1\n      0x1f\n      add\n      0x20\n      dup1\n      swap2\n      div\n      mul\n      0x20\n      add\n      mload(0x40)\n      swap1\n      dup2\n      add\n      0x40\n      mstore\n      dup1\n      swap3\n      swap2\n      swap1\n      dup2\n      dup2\n      mstore\n      0x20\n      add\n      dup3\n      dup1\n      sload\n      0x01\n      dup2\n      0x01\n      and\n      iszero\n      0x0100\n      mul\n      sub\n      and\n      0x02\n      swap1\n      div\n      dup1\n      iszero\n      tag_60\n      jumpi\n      dup1\n      0x1f\n      lt\n      tag_61\n      jumpi\n      0x0100\n      dup1\n      dup4\n      sload\n      div\n      mul\n      dup4\n      mstore\n      swap2\n      0x20\n      add\n      swap2\n      jump(tag_60)\n    tag_61:\n      dup3\n      add\n      swap2\n      swap1\n      0x00\n      mstore\n      keccak256(0x00, 0x20)\n      swap1\n    tag_62:\n      dup2\n      sload\n      dup2\n      mstore\n      swap1\n      0x01\n      add\n      swap1\n      0x20\n      add\n      dup1\n      dup4\n      gt\n      tag_62\n      jumpi\n      dup3\n      swap1\n      sub\n      0x1f\n      and\n      dup3\n      add\n      swap2\n    tag_60:\n      pop\n      pop\n      pop\n      pop\n      pop\n      swap1\n      pop\n        /* \"github.com/OpenZeppelin/openzeppelin-contracts/blob/v2.3.0/contracts/token/ERC20/ERC20Detailed.sol\":644:725  function name() public view returns (string memory) {... */\n      swap1\n      jump\t// out\n        /* \"github.com/OpenZeppelin/openzeppelin-contracts/blob/v2.3.0/contracts/token/ERC20/ERC20.sol\":2453:2598  function approve(address spender, uint256 value) public returns (bool) {... */\n    tag_26:\n        /* \"github.com/OpenZeppelin/openzeppelin-contracts/blob/v2.3.0/contracts/token/ERC20/ERC20.sol\":2518:2522  bool */\n      0x00\n        /* \"github.com/OpenZeppelin/openzeppelin-contracts/blob/v2.3.0/contracts/token/ERC20/ERC20.sol\":2534:2570  _approve(msg.sender, spender, value) */\n      tag_64\n        /* \"github.com/OpenZeppelin/openzeppelin-contracts/blob/v2.3.0/contracts/token/ERC20/ERC20.sol\":2543:2553  msg.sender */\n      caller\n        /* \"github.com/OpenZeppelin/openzeppelin-contracts/blob/v2.3.0/contracts/token/ERC20/ERC20.sol\":2555:2562  spender */\n      dup5\n        /* \"github.com/OpenZeppelin/openzeppelin-contracts/blob/v2.3.0/contracts/token/ERC20/ERC20.sol\":2564:2569  value */\n      dup5\n        /* \"github.com/OpenZeppelin/openzeppelin-contracts/blob/v2.3.0/contracts/token/ERC20/ERC20.sol\":2534:2542  _approve */\n      tag_65\n        /* \"github.com/OpenZeppelin/openzeppelin-contracts/blob/v2.3.0/contracts/token/ERC20/ERC20.sol\":2534:2570  _approve(msg.sender, spender, value) */\n      jump\t// in\n    tag_64:\n        /* \"github.com/OpenZeppelin/openzeppelin-contracts/blob/v2.3.0/contracts/token/ERC20/ERC20.sol\":2587:2591  true */\n      0x01\n        /* \"github.com/OpenZeppelin/openzeppelin-contracts/blob/v2.3.0/contracts/token/ERC20/ERC20.sol\":2580:2591  return true */\n      swap1\n      pop\n        /* \"github.com/OpenZeppelin/openzeppelin-contracts/blob/v2.3.0/contracts/token/ERC20/ERC20.sol\":2453:2598  function approve(address spender, uint256 value) public returns (bool) {... */\n      swap3\n      swap2\n      pop\n      pop\n      jump\t// out\n        /* \"github.com/OpenZeppelin/openzeppelin-contracts/blob/v2.3.0/contracts/token/ERC20/ERC20.sol\":1514:1603  function totalSupply() public view returns (uint256) {... */\n    tag_28:\n        /* \"github.com/OpenZeppelin/openzeppelin-contracts/blob/v2.3.0/contracts/token/ERC20/ERC20.sol\":1558:1565  uint256 */\n      0x00\n        /* \"github.com/OpenZeppelin/openzeppelin-contracts/blob/v2.3.0/contracts/token/ERC20/ERC20.sol\":1584:1596  _totalSupply */\n      sload(0x02)\n        /* \"github.com/OpenZeppelin/openzeppelin-contracts/blob/v2.3.0/contracts/token/ERC20/ERC20.sol\":1577:1596  return _totalSupply */\n      swap1\n      pop\n        /* \"github.com/OpenZeppelin/openzeppelin-contracts/blob/v2.3.0/contracts/token/ERC20/ERC20.sol\":1514:1603  function totalSupply() public view returns (uint256) {... */\n      swap1\n      jump\t// out\n        /* \"github.com/OpenZeppelin/openzeppelin-contracts/blob/v2.3.0/contracts/token/ERC20/ERC20.sol\":3055:3307  function transferFrom(address sender, address recipient, uint256 amount) public returns (bool) {... */\n    tag_31:\n        /* \"github.com/OpenZeppelin/openzeppelin-contracts/blob/v2.3.0/contracts/token/ERC20/ERC20.sol\":3144:3148  bool */\n      0x00\n        /* \"github.com/OpenZeppelin/openzeppelin-contracts/blob/v2.3.0/contracts/token/ERC20/ERC20.sol\":3160:3196  _transfer(sender, recipient, amount) */\n      tag_68\n        /* \"github.com/OpenZeppelin/openzeppelin-contracts/blob/v2.3.0/contracts/token/ERC20/ERC20.sol\":3170:3176  sender */\n      dup5\n        /* \"github.com/OpenZeppelin/openzeppelin-contracts/blob/v2.3.0/contracts/token/ERC20/ERC20.sol\":3178:3187  recipient */\n      dup5\n        /* \"github.com/OpenZeppelin/openzeppelin-contracts/blob/v2.3.0/contracts/token/ERC20/ERC20.sol\":3189:3195  amount */\n      dup5\n        /* \"github.com/OpenZeppelin/openzeppelin-contracts/blob/v2.3.0/contracts/token/ERC20/ERC20.sol\":3160:3169  _transfer */\n      tag_69\n        /* \"github.com/OpenZeppelin/openzeppelin-contracts/blob/v2.3.0/contracts/token/ERC20/ERC20.sol\":3160:3196  _transfer(sender, recipient, amount) */\n      jump\t// in\n    tag_68:\n        /* \"github.com/OpenZeppelin/openzeppelin-contracts/blob/v2.3.0/contracts/token/ERC20/ERC20.sol\":3206:3279  _approve(sender, msg.sender, _allowances[sender][msg.sender].sub(amount)) */\n      tag_70\n        /* \"github.com/OpenZeppelin/openzeppelin-contracts/blob/v2.3.0/contracts/token/ERC20/ERC20.sol\":3215:3221  sender */\n      dup5\n        /* \"github.com/OpenZeppelin/openzeppelin-contracts/blob/v2.3.0/contracts/token/ERC20/ERC20.sol\":3223:3233  msg.sender */\n      caller\n        /* \"github.com/OpenZeppelin/openzeppelin-contracts/blob/v2.3.0/contracts/token/ERC20/ERC20.sol\":3235:3278  _allowances[sender][msg.sender].sub(amount) */\n      tag_71\n        /* \"github.com/OpenZeppelin/openzeppelin-contracts/blob/v2.3.0/contracts/token/ERC20/ERC20.sol\":3271:3277  amount */\n      dup6\n        /* \"github.com/OpenZeppelin/openzeppelin-contracts/blob/v2.3.0/contracts/token/ERC20/ERC20.sol\":3235:3246  _allowances */\n      0x01\n        /* \"github.com/OpenZeppelin/openzeppelin-contracts/blob/v2.3.0/contracts/token/ERC20/ERC20.sol\":3235:3254  _allowances[sender] */\n      0x00\n        /* \"github.com/OpenZeppelin/openzeppelin-contracts/blob/v2.3.0/contracts/token/ERC20/ERC20.sol\":3247:3253  sender */\n      dup11\n        /* \"github.com/OpenZeppelin/openzeppelin-contracts/blob/v2.3.0/contracts/token/ERC20/ERC20.sol\":3235:3254  _allowances[sender] */\n      0xffffffffffffffffffffffffffffffffffffffff\n      and\n      0xffffffffffffffffffffffffffffffffffffffff\n      and\n      dup2\n      mstore\n      0x20\n      add\n      swap1\n      dup2\n      mstore\n      0x20\n      add\n      0x00\n      keccak256\n        /* \"github.com/OpenZeppelin/openzeppelin-contracts/blob/v2.3.0/contracts/token/ERC20/ERC20.sol\":3235:3266  _allowances[sender][msg.sender] */\n      0x00\n        /* \"github.com/OpenZeppelin/openzeppelin-contracts/blob/v2.3.0/contracts/token/ERC20/ERC20.sol\":3255:3265  msg.sender */\n      caller\n        /* \"github.com/OpenZeppelin/openzeppelin-contracts/blob/v2.3.0/contracts/token/ERC20/ERC20.sol\":3235:3266  _allowances[sender][msg.sender] */\n      0xffffffffffffffffffffffffffffffffffffffff\n      and\n      0xffffffffffffffffffffffffffffffffffffffff\n      and\n      dup2\n      mstore\n      0x20\n      add\n      swap1\n      dup2\n      mstore\n      0x20\n      add\n      0x00\n      keccak256\n      sload\n        /* \"github.com/OpenZeppelin/openzeppelin-contracts/blob/v2.3.0/contracts/token/ERC20/ERC20.sol\":3235:3270  _allowances[sender][msg.sender].sub */\n      tag_72\n      swap1\n        /* \"github.com/OpenZeppelin/openzeppelin-contracts/blob/v2.3.0/contracts/token/ERC20/ERC20.sol\":3235:3278  _allowances[sender][msg.sender].sub(amount) */\n      swap2\n      swap1\n      0xffffffff\n      and\n      jump\t// in\n    tag_71:\n        /* \"github.com/OpenZeppelin/openzeppelin-contracts/blob/v2.3.0/contracts/token/ERC20/ERC20.sol\":3206:3214  _approve */\n      tag_65\n        /* \"github.com/OpenZeppelin/openzeppelin-contracts/blob/v2.3.0/contracts/token/ERC20/ERC20.sol\":3206:3279  _approve(sender, msg.sender, _allowances[sender][msg.sender].sub(amount)) */\n      jump\t// in\n    tag_70:\n        /* \"github.com/OpenZeppelin/openzeppelin-contracts/blob/v2.3.0/contracts/token/ERC20/ERC20.sol\":3296:3300  true */\n      0x01\n        /* \"github.com/OpenZeppelin/openzeppelin-contracts/blob/v2.3.0/contracts/token/ERC20/ERC20.sol\":3289:3300  return true */\n      swap1\n      pop\n        /* \"github.com/OpenZeppelin/openzeppelin-contracts/blob/v2.3.0/contracts/token/ERC20/ERC20.sol\":3055:3307  function transferFrom(address sender, address recipient, uint256 amount) public returns (bool) {... */\n      swap4\n      swap3\n      pop\n      pop\n      pop\n      jump\t// out\n        /* \"github.com/OpenZeppelin/openzeppelin-contracts/blob/v2.3.0/contracts/examples/SimpleToken.sol#L20\":385:420  uint8 public constant DECIMALS = 18 */\n    tag_33:\n        /* \"github.com/OpenZeppelin/openzeppelin-contracts/blob/v2.3.0/contracts/examples/SimpleToken.sol#L20\":418:420  18 */\n      0x12\n        /* \"github.com/OpenZeppelin/openzeppelin-contracts/blob/v2.3.0/contracts/examples/SimpleToken.sol#L20\":385:420  uint8 public constant DECIMALS = 18 */\n      dup2\n      jump\t// out\n        /* \"github.com/OpenZeppelin/openzeppelin-contracts/blob/v2.3.0/contracts/examples/SimpleToken.sol#L20\":426:500  uint256 public constant INITIAL_SUPPLY = 10000 * (10 ** uint256(DECIMALS)) */\n    tag_35:\n        /* \"github.com/OpenZeppelin/openzeppelin-contracts/blob/v2.3.0/contracts/examples/SimpleToken.sol#L20\":418:420  18 */\n      0x12\n        /* \"github.com/OpenZeppelin/openzeppelin-contracts/blob/v2.3.0/contracts/examples/SimpleToken.sol#L20\":482:499  uint256(DECIMALS) */\n      0xff\n      and\n        /* \"github.com/OpenZeppelin/openzeppelin-contracts/blob/v2.3.0/contracts/examples/SimpleToken.sol#L20\":476:478  10 */\n      0x0a\n        /* \"github.com/OpenZeppelin/openzeppelin-contracts/blob/v2.3.0/contracts/examples/SimpleToken.sol#L20\":476:499  10 ** uint256(DECIMALS) */\n      exp\n        /* \"github.com/OpenZeppelin/openzeppelin-contracts/blob/v2.3.0/contracts/examples/SimpleToken.sol#L20\":467:472  10000 */\n      0x2710\n        /* \"github.com/OpenZeppelin/openzeppelin-contracts/blob/v2.3.0/contracts/examples/SimpleToken.sol#L20\":467:500  10000 * (10 ** uint256(DECIMALS)) */\n      mul\n        /* \"github.com/OpenZeppelin/openzeppelin-contracts/blob/v2.3.0/contracts/examples/SimpleToken.sol#L20\":426:500  uint256 public constant INITIAL_SUPPLY = 10000 * (10 ** uint256(DECIMALS)) */\n      dup2\n      jump\t// out\n        /* \"github.com/OpenZeppelin/openzeppelin-contracts/blob/v2.3.0/contracts/token/ERC20/ERC20Detailed.sol\":1478:1559  function decimals() public view returns (uint8) {... */\n    tag_37:\n        /* \"github.com/OpenZeppelin/openzeppelin-contracts/blob/v2.3.0/contracts/token/ERC20/ERC20Detailed.sol\":1519:1524  uint8 */\n      0x00\n        /* \"github.com/OpenZeppelin/openzeppelin-contracts/blob/v2.3.0/contracts/token/ERC20/ERC20Detailed.sol\":1543:1552  _decimals */\n      0x05\n      0x00\n      swap1\n      sload\n      swap1\n      0x0100\n      exp\n      swap1\n      div\n      0xff\n      and\n        /* \"github.com/OpenZeppelin/openzeppelin-contracts/blob/v2.3.0/contracts/token/ERC20/ERC20Detailed.sol\":1536:1552  return _decimals */\n      swap1\n      pop\n        /* \"github.com/OpenZeppelin/openzeppelin-contracts/blob/v2.3.0/contracts/token/ERC20/ERC20Detailed.sol\":1478:1559  function decimals() public view returns (uint8) {... */\n      swap1\n      jump\t// out\n        /* \"github.com/OpenZeppelin/openzeppelin-contracts/blob/v2.3.0/contracts/token/ERC20/ERC20.sol\":3702:3905  function increaseAllowance(address spender, uint256 addedValue) public returns (bool) {... */\n    tag_40:\n        /* \"github.com/OpenZeppelin/openzeppelin-contracts/blob/v2.3.0/contracts/token/ERC20/ERC20.sol\":3782:3786  bool */\n      0x00\n        /* \"github.com/OpenZeppelin/openzeppelin-contracts/blob/v2.3.0/contracts/token/ERC20/ERC20.sol\":3798:3877  _approve(msg.sender, spender, _allowances[msg.sender][spender].add(addedValue)) */\n      tag_75\n        /* \"github.com/OpenZeppelin/openzeppelin-contracts/blob/v2.3.0/contracts/token/ERC20/ERC20.sol\":3807:3817  msg.sender */\n      caller\n        /* \"github.com/OpenZeppelin/openzeppelin-contracts/blob/v2.3.0/contracts/token/ERC20/ERC20.sol\":3819:3826  spender */\n      dup5\n        /* \"github.com/OpenZeppelin/openzeppelin-contracts/blob/v2.3.0/contracts/token/ERC20/ERC20.sol\":3828:3876  _allowances[msg.sender][spender].add(addedValue) */\n      tag_76\n        /* \"github.com/OpenZeppelin/openzeppelin-contracts/blob/v2.3.0/contracts/token/ERC20/ERC20.sol\":3865:3875  addedValue */\n      dup6\n        /* \"github.com/OpenZeppelin/openzeppelin-contracts/blob/v2.3.0/contracts/token/ERC20/ERC20.sol\":3828:3839  _allowances */\n      0x01\n        /* \"github.com/OpenZeppelin/openzeppelin-contracts/blob/v2.3.0/contracts/token/ERC20/ERC20.sol\":3828:3851  _allowances[msg.sender] */\n      0x00\n        /* \"github.com/OpenZeppelin/openzeppelin-contracts/blob/v2.3.0/contracts/token/ERC20/ERC20.sol\":3840:3850  msg.sender */\n      caller\n        /* \"github.com/OpenZeppelin/openzeppelin-contracts/blob/v2.3.0/contracts/token/ERC20/ERC20.sol\":3828:3851  _allowances[msg.sender] */\n      0xffffffffffffffffffffffffffffffffffffffff\n      and\n      0xffffffffffffffffffffffffffffffffffffffff\n      and\n      dup2\n      mstore\n      0x20\n      add\n      swap1\n      dup2\n      mstore\n      0x20\n      add\n      0x00\n      keccak256\n        /* \"github.com/OpenZeppelin/openzeppelin-contracts/blob/v2.3.0/contracts/token/ERC20/ERC20.sol\":3828:3860  _allowances[msg.sender][spender] */\n      0x00\n        /* \"github.com/OpenZeppelin/openzeppelin-contracts/blob/v2.3.0/contracts/token/ERC20/ERC20.sol\":3852:3859  spender */\n      dup10\n        /* \"github.com/OpenZeppelin/openzeppelin-contracts/blob/v2.3.0/contracts/token/ERC20/ERC20.sol\":3828:3860  _allowances[msg.sender][spender] */\n      0xffffffffffffffffffffffffffffffffffffffff\n      and\n      0xffffffffffffffffffffffffffffffffffffffff\n      and\n      dup2\n      mstore\n      0x20\n      add\n      swap1\n      dup2\n      mstore\n      0x20\n      add\n      0x00\n      keccak256\n      sload\n        /* \"github.com/OpenZeppelin/openzeppelin-contracts/blob/v2.3.0/contracts/token/ERC20/ERC20.sol\":3828:3864  _allowances[msg.sender][spender].add */\n      tag_77\n      swap1\n        /* \"github.com/OpenZeppelin/openzeppelin-contracts/blob/v2.3.0/contracts/token/ERC20/ERC20.sol\":3828:3876  _allowances[msg.sender][spender].add(addedValue) */\n      swap2\n      swap1\n      0xffffffff\n      and\n      jump\t// in\n    tag_76:\n        /* \"github.com/OpenZeppelin/openzeppelin-contracts/blob/v2.3.0/contracts/token/ERC20/ERC20.sol\":3798:3806  _approve */\n      tag_65\n        /* \"github.com/OpenZeppelin/openzeppelin-contracts/blob/v2.3.0/contracts/token/ERC20/ERC20.sol\":3798:3877  _approve(msg.sender, spender, _allowances[msg.sender][spender].add(addedValue)) */\n      jump\t// in\n    tag_75:\n        /* \"github.com/OpenZeppelin/openzeppelin-contracts/blob/v2.3.0/contracts/token/ERC20/ERC20.sol\":3894:3898  true */\n      0x01\n        /* \"github.com/OpenZeppelin/openzeppelin-contracts/blob/v2.3.0/contracts/token/ERC20/ERC20.sol\":3887:3898  return true */\n      swap1\n      pop\n        /* \"github.com/OpenZeppelin/openzeppelin-contracts/blob/v2.3.0/contracts/token/ERC20/ERC20.sol\":3702:3905  function increaseAllowance(address spender, uint256 addedValue) public returns (bool) {... */\n      swap3\n      swap2\n      pop\n      pop\n      jump\t// out\n        /* \"github.com/OpenZeppelin/openzeppelin-contracts/blob/v2.3.0/contracts/token/ERC20/ERC20.sol\":1661:1769  function balanceOf(address account) public view returns (uint256) {... */\n    tag_43:\n        /* \"github.com/OpenZeppelin/openzeppelin-contracts/blob/v2.3.0/contracts/token/ERC20/ERC20.sol\":1718:1725  uint256 */\n      0x00\n        /* \"github.com/OpenZeppelin/openzeppelin-contracts/blob/v2.3.0/contracts/token/ERC20/ERC20.sol\":1744:1753  _balances */\n      dup1\n        /* \"github.com/OpenZeppelin/openzeppelin-contracts/blob/v2.3.0/contracts/token/ERC20/ERC20.sol\":1744:1762  _balances[account] */\n      0x00\n        /* \"github.com/OpenZeppelin/openzeppelin-contracts/blob/v2.3.0/contracts/token/ERC20/ERC20.sol\":1754:1761  account */\n      dup4\n        /* \"github.com/OpenZeppelin/openzeppelin-contracts/blob/v2.3.0/contracts/token/ERC20/ERC20.sol\":1744:1762  _balances[account] */\n      0xffffffffffffffffffffffffffffffffffffffff\n      and\n      0xffffffffffffffffffffffffffffffffffffffff\n      and\n      dup2\n      mstore\n      0x20\n      add\n      swap1\n      dup2\n      mstore\n      0x20\n      add\n      0x00\n      keccak256\n      sload\n        /* \"github.com/OpenZeppelin/openzeppelin-contracts/blob/v2.3.0/contracts/token/ERC20/ERC20.sol\":1737:1762  return _balances[account] */\n      swap1\n      pop\n        /* \"github.com/OpenZeppelin/openzeppelin-contracts/blob/v2.3.0/contracts/token/ERC20/ERC20.sol\":1661:1769  function balanceOf(address account) public view returns (uint256) {... */\n      swap2\n      swap1\n      pop\n      jump\t// out\n        /* \"github.com/OpenZeppelin/openzeppelin-contracts/blob/v2.3.0/contracts/token/ERC20/ERC20Detailed.sol\":838:923  function symbol() public view returns (string memory) {... */\n    tag_45:\n        /* \"github.com/OpenZeppelin/openzeppelin-contracts/blob/v2.3.0/contracts/token/ERC20/ERC20Detailed.sol\":877:890  string memory */\n      0x60\n        /* \"github.com/OpenZeppelin/openzeppelin-contracts/blob/v2.3.0/contracts/token/ERC20/ERC20Detailed.sol\":909:916  _symbol */\n      0x04\n        /* \"github.com/OpenZeppelin/openzeppelin-contracts/blob/v2.3.0/contracts/token/ERC20/ERC20Detailed.sol\":902:916  return _symbol */\n      dup1\n      sload\n      0x01\n      dup2\n      0x01\n      and\n      iszero\n      0x0100\n      mul\n      sub\n      and\n      0x02\n      swap1\n      div\n      dup1\n      0x1f\n      add\n      0x20\n      dup1\n      swap2\n      div\n      mul\n      0x20\n      add\n      mload(0x40)\n      swap1\n      dup2\n      add\n      0x40\n      mstore\n      dup1\n      swap3\n      swap2\n      swap1\n      dup2\n      dup2\n      mstore\n      0x20\n      add\n      dup3\n      dup1\n      sload\n      0x01\n      dup2\n      0x01\n      and\n      iszero\n      0x0100\n      mul\n      sub\n      and\n      0x02\n      swap1\n      div\n      dup1\n      iszero\n      tag_80\n      jumpi\n      dup1\n      0x1f\n      lt\n      tag_81\n      jumpi\n      0x0100\n      dup1\n      dup4\n      sload\n      div\n      mul\n      dup4\n      mstore\n      swap2\n      0x20\n      add\n      swap2\n      jump(tag_80)\n    tag_81:\n      dup3\n      add\n      swap2\n      swap1\n      0x00\n      mstore\n      keccak256(0x00, 0x20)\n      swap1\n    tag_82:\n      dup2\n      sload\n      dup2\n      mstore\n      swap1\n      0x01\n      add\n      swap1\n      0x20\n      add\n      dup1\n      dup4\n      gt\n      tag_82\n      jumpi\n      dup3\n      swap1\n      sub\n      0x1f\n      and\n      dup3\n      add\n      swap2\n    tag_80:\n      pop\n      pop\n      pop\n      pop\n      pop\n      swap1\n      pop\n        /* \"github.com/OpenZeppelin/openzeppelin-contracts/blob/v2.3.0/contracts/token/ERC20/ERC20Detailed.sol\":838:923  function symbol() public view returns (string memory) {... */\n      swap1\n      jump\t// out\n        /* \"github.com/OpenZeppelin/openzeppelin-contracts/blob/v2.3.0/contracts/token/ERC20/ERC20.sol\":4392:4605  function decreaseAllowance(address spender, uint256 subtractedValue) public returns (bool) {... */\n    tag_52:\n        /* \"github.com/OpenZeppelin/openzeppelin-contracts/blob/v2.3.0/contracts/token/ERC20/ERC20.sol\":4477:4481  bool */\n      0x00\n        /* \"github.com/OpenZeppelin/openzeppelin-contracts/blob/v2.3.0/contracts/token/ERC20/ERC20.sol\":4493:4577  _approve(msg.sender, spender, _allowances[msg.sender][spender].sub(subtractedValue)) */\n      tag_84\n        /* \"github.com/OpenZeppelin/openzeppelin-contracts/blob/v2.3.0/contracts/token/ERC20/ERC20.sol\":4502:4512  msg.sender */\n      caller\n        /* \"github.com/OpenZeppelin/openzeppelin-contracts/blob/v2.3.0/contracts/token/ERC20/ERC20.sol\":4514:4521  spender */\n      dup5\n        /* \"github.com/OpenZeppelin/openzeppelin-contracts/blob/v2.3.0/contracts/token/ERC20/ERC20.sol\":4523:4576  _allowances[msg.sender][spender].sub(subtractedValue) */\n      tag_85\n        /* \"github.com/OpenZeppelin/openzeppelin-contracts/blob/v2.3.0/contracts/token/ERC20/ERC20.sol\":4560:4575  subtractedValue */\n      dup6\n        /* \"github.com/OpenZeppelin/openzeppelin-contracts/blob/v2.3.0/contracts/token/ERC20/ERC20.sol\":4523:4534  _allowances */\n      0x01\n        /* \"github.com/OpenZeppelin/openzeppelin-contracts/blob/v2.3.0/contracts/token/ERC20/ERC20.sol\":4523:4546  _allowances[msg.sender] */\n      0x00\n        /* \"github.com/OpenZeppelin/openzeppelin-contracts/blob/v2.3.0/contracts/token/ERC20/ERC20.sol\":4535:4545  msg.sender */\n      caller\n        /* \"github.com/OpenZeppelin/openzeppelin-contracts/blob/v2.3.0/contracts/token/ERC20/ERC20.sol\":4523:4546  _allowances[msg.sender] */\n      0xffffffffffffffffffffffffffffffffffffffff\n      and\n      0xffffffffffffffffffffffffffffffffffffffff\n      and\n      dup2\n      mstore\n      0x20\n      add\n      swap1\n      dup2\n      mstore\n      0x20\n      add\n      0x00\n      keccak256\n        /* \"github.com/OpenZeppelin/openzeppelin-contracts/blob/v2.3.0/contracts/token/ERC20/ERC20.sol\":4523:4555  _allowances[msg.sender][spender] */\n      0x00\n        /* \"github.com/OpenZeppelin/openzeppelin-contracts/blob/v2.3.0/contracts/token/ERC20/ERC20.sol\":4547:4554  spender */\n      dup10\n        /* \"github.com/OpenZeppelin/openzeppelin-contracts/blob/v2.3.0/contracts/token/ERC20/ERC20.sol\":4523:4555  _allowances[msg.sender][spender] */\n      0xffffffffffffffffffffffffffffffffffffffff\n      and\n      0xffffffffffffffffffffffffffffffffffffffff\n      and\n      dup2\n      mstore\n      0x20\n      add\n      swap1\n      dup2\n      mstore\n      0x20\n      add\n      0x00\n      keccak256\n      sload\n        /* \"github.com/OpenZeppelin/openzeppelin-contracts/blob/v2.3.0/contracts/token/ERC20/ERC20.sol\":4523:4559  _allowances[msg.sender][spender].sub */\n      tag_72\n      swap1\n        /* \"github.com/OpenZeppelin/openzeppelin-contracts/blob/v2.3.0/contracts/token/ERC20/ERC20.sol\":4523:4576  _allowances[msg.sender][spender].sub(subtractedValue) */\n      swap2\n      swap1\n      0xffffffff\n      and\n      jump\t// in\n    tag_85:\n        /* \"github.com/OpenZeppelin/openzeppelin-contracts/blob/v2.3.0/contracts/token/ERC20/ERC20.sol\":4493:4501  _approve */\n      tag_65\n        /* \"github.com/OpenZeppelin/openzeppelin-contracts/blob/v2.3.0/contracts/token/ERC20/ERC20.sol\":4493:4577  _approve(msg.sender, spender, _allowances[msg.sender][spender].sub(subtractedValue)) */\n      jump\t// in\n    tag_84:\n        /* \"github.com/OpenZeppelin/openzeppelin-contracts/blob/v2.3.0/contracts/token/ERC20/ERC20.sol\":4594:4598  true */\n      0x01\n        /* \"github.com/OpenZeppelin/openzeppelin-contracts/blob/v2.3.0/contracts/token/ERC20/ERC20.sol\":4587:4598  return true */\n      swap1\n      pop\n        /* \"github.com/OpenZeppelin/openzeppelin-contracts/blob/v2.3.0/contracts/token/ERC20/ERC20.sol\":4392:4605  function decreaseAllowance(address spender, uint256 subtractedValue) public returns (bool) {... */\n      swap3\n      swap2\n      pop\n      pop\n      jump\t// out\n        /* \"github.com/OpenZeppelin/openzeppelin-contracts/blob/v2.3.0/contracts/token/ERC20/ERC20.sol\":1972:2125  function transfer(address recipient, uint256 amount) public returns (bool) {... */\n    tag_55:\n        /* \"github.com/OpenZeppelin/openzeppelin-contracts/blob/v2.3.0/contracts/token/ERC20/ERC20.sol\":2041:2045  bool */\n      0x00\n        /* \"github.com/OpenZeppelin/openzeppelin-contracts/blob/v2.3.0/contracts/token/ERC20/ERC20.sol\":2057:2097  _transfer(msg.sender, recipient, amount) */\n      tag_87\n        /* \"github.com/OpenZeppelin/openzeppelin-contracts/blob/v2.3.0/contracts/token/ERC20/ERC20.sol\":2067:2077  msg.sender */\n      caller\n        /* \"github.com/OpenZeppelin/openzeppelin-contracts/blob/v2.3.0/contracts/token/ERC20/ERC20.sol\":2079:2088  recipient */\n      dup5\n        /* \"github.com/OpenZeppelin/openzeppelin-contracts/blob/v2.3.0/contracts/token/ERC20/ERC20.sol\":2090:2096  amount */\n      dup5\n        /* \"github.com/OpenZeppelin/openzeppelin-contracts/blob/v2.3.0/contracts/token/ERC20/ERC20.sol\":2057:2066  _transfer */\n      tag_69\n        /* \"github.com/OpenZeppelin/openzeppelin-contracts/blob/v2.3.0/contracts/token/ERC20/ERC20.sol\":2057:2097  _transfer(msg.sender, recipient, amount) */\n      jump\t// in\n    tag_87:\n        /* \"github.com/OpenZeppelin/openzeppelin-contracts/blob/v2.3.0/contracts/token/ERC20/ERC20.sol\":2114:2118  true */\n      0x01\n        /* \"github.com/OpenZeppelin/openzeppelin-contracts/blob/v2.3.0/contracts/token/ERC20/ERC20.sol\":2107:2118  return true */\n      swap1\n      pop\n        /* \"github.com/OpenZeppelin/openzeppelin-contracts/blob/v2.3.0/contracts/token/ERC20/ERC20.sol\":1972:2125  function transfer(address recipient, uint256 amount) public returns (bool) {... */\n      swap3\n      swap2\n      pop\n      pop\n      jump\t// out\n        /* \"github.com/OpenZeppelin/openzeppelin-contracts/blob/v2.3.0/contracts/token/ERC20/ERC20.sol\":2183:2315  function allowance(address owner, address spender) public view returns (uint256) {... */\n    tag_58:\n        /* \"github.com/OpenZeppelin/openzeppelin-contracts/blob/v2.3.0/contracts/token/ERC20/ERC20.sol\":2255:2262  uint256 */\n      0x00\n        /* \"github.com/OpenZeppelin/openzeppelin-contracts/blob/v2.3.0/contracts/token/ERC20/ERC20.sol\":2281:2292  _allowances */\n      0x01\n        /* \"github.com/OpenZeppelin/openzeppelin-contracts/blob/v2.3.0/contracts/token/ERC20/ERC20.sol\":2281:2299  _allowances[owner] */\n      0x00\n        /* \"github.com/OpenZeppelin/openzeppelin-contracts/blob/v2.3.0/contracts/token/ERC20/ERC20.sol\":2293:2298  owner */\n      dup5\n        /* \"github.com/OpenZeppelin/openzeppelin-contracts/blob/v2.3.0/contracts/token/ERC20/ERC20.sol\":2281:2299  _allowances[owner] */\n      0xffffffffffffffffffffffffffffffffffffffff\n      and\n      0xffffffffffffffffffffffffffffffffffffffff\n      and\n      dup2\n      mstore\n      0x20\n      add\n      swap1\n      dup2\n      mstore\n      0x20\n      add\n      0x00\n      keccak256\n        /* \"github.com/OpenZeppelin/openzeppelin-contracts/blob/v2.3.0/contracts/token/ERC20/ERC20.sol\":2281:2308  _allowances[owner][spender] */\n      0x00\n        /* \"github.com/OpenZeppelin/openzeppelin-contracts/blob/v2.3.0/contracts/token/ERC20/ERC20.sol\":2300:2307  spender */\n      dup4\n        /* \"github.com/OpenZeppelin/openzeppelin-contracts/blob/v2.3.0/contracts/token/ERC20/ERC20.sol\":2281:2308  _allowances[owner][spender] */\n      0xffffffffffffffffffffffffffffffffffffffff\n      and\n      0xffffffffffffffffffffffffffffffffffffffff\n      and\n      dup2\n      mstore\n      0x20\n      add\n      swap1\n      dup2\n      mstore\n      0x20\n      add\n      0x00\n      keccak256\n      sload\n        /* \"github.com/OpenZeppelin/openzeppelin-contracts/blob/v2.3.0/contracts/token/ERC20/ERC20.sol\":2274:2308  return _allowances[owner][spender] */\n      swap1\n      pop\n        /* \"github.com/OpenZeppelin/openzeppelin-contracts/blob/v2.3.0/contracts/token/ERC20/ERC20.sol\":2183:2315  function allowance(address owner, address spender) public view returns (uint256) {... */\n      swap3\n      swap2\n      pop\n      pop\n      jump\t// out\n        /* \"github.com/OpenZeppelin/openzeppelin-contracts/blob/v2.3.0/contracts/token/ERC20/ERC20.sol\":7117:7446  function _approve(address owner, address spender, uint256 value) internal {... */\n    tag_65:\n        /* \"github.com/OpenZeppelin/openzeppelin-contracts/blob/v2.3.0/contracts/token/ERC20/ERC20.sol\":7226:7227  0 */\n      0x00\n        /* \"github.com/OpenZeppelin/openzeppelin-contracts/blob/v2.3.0/contracts/token/ERC20/ERC20.sol\":7209:7228  owner != address(0) */\n      0xffffffffffffffffffffffffffffffffffffffff\n      and\n        /* \"github.com/OpenZeppelin/openzeppelin-contracts/blob/v2.3.0/contracts/token/ERC20/ERC20.sol\":7209:7214  owner */\n      dup4\n        /* \"github.com/OpenZeppelin/openzeppelin-contracts/blob/v2.3.0/contracts/token/ERC20/ERC20.sol\":7209:7228  owner != address(0) */\n      0xffffffffffffffffffffffffffffffffffffffff\n      and\n      eq\n      iszero\n        /* \"github.com/OpenZeppelin/openzeppelin-contracts/blob/v2.3.0/contracts/token/ERC20/ERC20.sol\":7201:7269  require(owner != address(0), \"ERC20: approve from the zero address\") */\n      tag_90\n      jumpi\n      mload(0x40)\n      0x08c379a000000000000000000000000000000000000000000000000000000000\n      dup2\n      mstore\n      0x04\n      add\n      dup1\n      dup1\n      0x20\n      add\n      dup3\n      dup2\n      sub\n      dup3\n      mstore\n      0x24\n      dup2\n      mstore\n      0x20\n      add\n      dup1\n      data_c953f4879035ed60e766b34720f656aab5c697b141d924c283124ecedb91c208\n      0x24\n      swap2\n      codecopy\n      0x40\n      add\n      swap2\n      pop\n      pop\n      mload(0x40)\n      dup1\n      swap2\n      sub\n      swap1\n      revert\n    tag_90:\n        /* \"github.com/OpenZeppelin/openzeppelin-contracts/blob/v2.3.0/contracts/token/ERC20/ERC20.sol\":7306:7307  0 */\n      0x00\n        /* \"github.com/OpenZeppelin/openzeppelin-contracts/blob/v2.3.0/contracts/token/ERC20/ERC20.sol\":7287:7308  spender != address(0) */\n      0xffffffffffffffffffffffffffffffffffffffff\n      and\n        /* \"github.com/OpenZeppelin/openzeppelin-contracts/blob/v2.3.0/contracts/token/ERC20/ERC20.sol\":7287:7294  spender */\n      dup3\n        /* \"github.com/OpenZeppelin/openzeppelin-contracts/blob/v2.3.0/contracts/token/ERC20/ERC20.sol\":7287:7308  spender != address(0) */\n      0xffffffffffffffffffffffffffffffffffffffff\n      and\n      eq\n      iszero\n        /* \"github.com/OpenZeppelin/openzeppelin-contracts/blob/v2.3.0/contracts/token/ERC20/ERC20.sol\":7279:7347  require(spender != address(0), \"ERC20: approve to the zero address\") */\n      tag_91\n      jumpi\n      mload(0x40)\n      0x08c379a000000000000000000000000000000000000000000000000000000000\n      dup2\n      mstore\n      0x04\n      add\n      dup1\n      dup1\n      0x20\n      add\n      dup3\n      dup2\n      sub\n      dup3\n      mstore\n      0x22\n      dup2\n      mstore\n      0x20\n      add\n      dup1\n      data_24883cc5fe64ace9d0df1893501ecb93c77180f0ff69cca79affb3c316dc8029\n      0x22\n      swap2\n      codecopy\n      0x40\n      add\n      swap2\n      pop\n      pop\n      mload(0x40)\n      dup1\n      swap2\n      sub\n      swap1\n      revert\n    tag_91:\n        /* \"github.com/OpenZeppelin/openzeppelin-contracts/blob/v2.3.0/contracts/token/ERC20/ERC20.sol\":7388:7393  value */\n      dup1\n        /* \"github.com/OpenZeppelin/openzeppelin-contracts/blob/v2.3.0/contracts/token/ERC20/ERC20.sol\":7358:7369  _allowances */\n      0x01\n        /* \"github.com/OpenZeppelin/openzeppelin-contracts/blob/v2.3.0/contracts/token/ERC20/ERC20.sol\":7358:7376  _allowances[owner] */\n      0x00\n        /* \"github.com/OpenZeppelin/openzeppelin-contracts/blob/v2.3.0/contracts/token/ERC20/ERC20.sol\":7370:7375  owner */\n      dup6\n        /* \"github.com/OpenZeppelin/openzeppelin-contracts/blob/v2.3.0/contracts/token/ERC20/ERC20.sol\":7358:7376  _allowances[owner] */\n      0xffffffffffffffffffffffffffffffffffffffff\n      and\n      0xffffffffffffffffffffffffffffffffffffffff\n      and\n      dup2\n      mstore\n      0x20\n      add\n      swap1\n      dup2\n      mstore\n      0x20\n      add\n      0x00\n      keccak256\n        /* \"github.com/OpenZeppelin/openzeppelin-contracts/blob/v2.3.0/contracts/token/ERC20/ERC20.sol\":7358:7385  _allowances[owner][spender] */\n      0x00\n        /* \"github.com/OpenZeppelin/openzeppelin-contracts/blob/v2.3.0/contracts/token/ERC20/ERC20.sol\":7377:7384  spender */\n      dup5\n        /* \"github.com/OpenZeppelin/openzeppelin-contracts/blob/v2.3.0/contracts/token/ERC20/ERC20.sol\":7358:7385  _allowances[owner][spender] */\n      0xffffffffffffffffffffffffffffffffffffffff\n      and\n      0xffffffffffffffffffffffffffffffffffffffff\n      and\n      dup2\n      mstore\n      0x20\n      add\n      swap1\n      dup2\n      mstore\n      0x20\n      add\n      0x00\n      keccak256\n        /* \"github.com/OpenZeppelin/openzeppelin-contracts/blob/v2.3.0/contracts/token/ERC20/ERC20.sol\":7358:7393  _allowances[owner][spender] = value */\n      dup2\n      swap1\n      sstore\n      pop\n        /* \"github.com/OpenZeppelin/openzeppelin-contracts/blob/v2.3.0/contracts/token/ERC20/ERC20.sol\":7424:7431  spender */\n      dup2\n        /* \"github.com/OpenZeppelin/openzeppelin-contracts/blob/v2.3.0/contracts/token/ERC20/ERC20.sol\":7408:7439  Approval(owner, spender, value) */\n      0xffffffffffffffffffffffffffffffffffffffff\n      and\n        /* \"github.com/OpenZeppelin/openzeppelin-contracts/blob/v2.3.0/contracts/token/ERC20/ERC20.sol\":7417:7422  owner */\n      dup4\n        /* \"github.com/OpenZeppelin/openzeppelin-contracts/blob/v2.3.0/contracts/token/ERC20/ERC20.sol\":7408:7439  Approval(owner, spender, value) */\n      0xffffffffffffffffffffffffffffffffffffffff\n      and\n      0x8c5be1e5ebec7d5bd14f71427d1e84f3dd0314c0f7b2291e5b200ac8c7c3b925\n        /* \"github.com/OpenZeppelin/openzeppelin-contracts/blob/v2.3.0/contracts/token/ERC20/ERC20.sol\":7433:7438  value */\n      dup4\n        /* \"github.com/OpenZeppelin/openzeppelin-contracts/blob/v2.3.0/contracts/token/ERC20/ERC20.sol\":7408:7439  Approval(owner, spender, value) */\n      mload(0x40)\n      dup1\n      dup3\n      dup2\n      mstore\n      0x20\n      add\n      swap2\n      pop\n      pop\n      mload(0x40)\n      dup1\n      swap2\n      sub\n      swap1\n      log3\n        /* \"github.com/OpenZeppelin/openzeppelin-contracts/blob/v2.3.0/contracts/token/ERC20/ERC20.sol\":7117:7446  function _approve(address owner, address spender, uint256 value) internal {... */\n      pop\n      pop\n      pop\n      jump\t// out\n        /* \"github.com/OpenZeppelin/openzeppelin-contracts/blob/v2.3.0/contracts/token/ERC20/ERC20.sol\":5079:5501  function _transfer(address sender, address recipient, uint256 amount) internal {... */\n    tag_69:\n        /* \"github.com/OpenZeppelin/openzeppelin-contracts/blob/v2.3.0/contracts/token/ERC20/ERC20.sol\":5194:5195  0 */\n      0x00\n        /* \"github.com/OpenZeppelin/openzeppelin-contracts/blob/v2.3.0/contracts/token/ERC20/ERC20.sol\":5176:5196  sender != address(0) */\n      0xffffffffffffffffffffffffffffffffffffffff\n      and\n        /* \"github.com/OpenZeppelin/openzeppelin-contracts/blob/v2.3.0/contracts/token/ERC20/ERC20.sol\":5176:5182  sender */\n      dup4\n        /* \"github.com/OpenZeppelin/openzeppelin-contracts/blob/v2.3.0/contracts/token/ERC20/ERC20.sol\":5176:5196  sender != address(0) */\n      0xffffffffffffffffffffffffffffffffffffffff\n      and\n      eq\n      iszero\n        /* \"github.com/OpenZeppelin/openzeppelin-contracts/blob/v2.3.0/contracts/token/ERC20/ERC20.sol\":5168:5238  require(sender != address(0), \"ERC20: transfer from the zero address\") */\n      tag_93\n      jumpi\n      mload(0x40)\n      0x08c379a000000000000000000000000000000000000000000000000000000000\n      dup2\n      mstore\n      0x04\n      add\n      dup1\n      dup1\n      0x20\n      add\n      dup3\n      dup2\n      sub\n      dup3\n      mstore\n      0x25\n      dup2\n      mstore\n      0x20\n      add\n      dup1\n      data_baecc556b46f4ed0f2b4cb599d60785ac8563dd2dc0a5bf12edea1c39e5e1fea\n      0x25\n      swap2\n      codecopy\n      0x40\n      add\n      swap2\n      pop\n      pop\n      mload(0x40)\n      dup1\n      swap2\n      sub\n      swap1\n      revert\n    tag_93:\n        /* \"github.com/OpenZeppelin/openzeppelin-contracts/blob/v2.3.0/contracts/token/ERC20/ERC20.sol\":5277:5278  0 */\n      0x00\n        /* \"github.com/OpenZeppelin/openzeppelin-contracts/blob/v2.3.0/contracts/token/ERC20/ERC20.sol\":5256:5279  recipient != address(0) */\n      0xffffffffffffffffffffffffffffffffffffffff\n      and\n        /* \"github.com/OpenZeppelin/openzeppelin-contracts/blob/v2.3.0/contracts/token/ERC20/ERC20.sol\":5256:5265  recipient */\n      dup3\n        /* \"github.com/OpenZeppelin/openzeppelin-contracts/blob/v2.3.0/contracts/token/ERC20/ERC20.sol\":5256:5279  recipient != address(0) */\n      0xffffffffffffffffffffffffffffffffffffffff\n      and\n      eq\n      iszero\n        /* \"github.com/OpenZeppelin/openzeppelin-contracts/blob/v2.3.0/contracts/token/ERC20/ERC20.sol\":5248:5319  require(recipient != address(0), \"ERC20: transfer to the zero address\") */\n      tag_94\n      jumpi\n      mload(0x40)\n      0x08c379a000000000000000000000000000000000000000000000000000000000\n      dup2\n      mstore\n      0x04\n      add\n      dup1\n      dup1\n      0x20\n      add\n      dup3\n      dup2\n      sub\n      dup3\n      mstore\n      0x23\n      dup2\n      mstore\n      0x20\n      add\n      dup1\n      data_0557e210f7a69a685100a7e4e3d0a7024c546085cee28910fd17d0b081d9516f\n      0x23\n      swap2\n      codecopy\n      0x40\n      add\n      swap2\n      pop\n      pop\n      mload(0x40)\n      dup1\n      swap2\n      sub\n      swap1\n      revert\n    tag_94:\n        /* \"github.com/OpenZeppelin/openzeppelin-contracts/blob/v2.3.0/contracts/token/ERC20/ERC20.sol\":5350:5379  _balances[sender].sub(amount) */\n      tag_95\n        /* \"github.com/OpenZeppelin/openzeppelin-contracts/blob/v2.3.0/contracts/token/ERC20/ERC20.sol\":5372:5378  amount */\n      dup2\n        /* \"github.com/OpenZeppelin/openzeppelin-contracts/blob/v2.3.0/contracts/token/ERC20/ERC20.sol\":5350:5359  _balances */\n      0x00\n        /* \"github.com/OpenZeppelin/openzeppelin-contracts/blob/v2.3.0/contracts/token/ERC20/ERC20.sol\":5350:5367  _balances[sender] */\n      dup1\n        /* \"github.com/OpenZeppelin/openzeppelin-contracts/blob/v2.3.0/contracts/token/ERC20/ERC20.sol\":5360:5366  sender */\n      dup7\n        /* \"github.com/OpenZeppelin/openzeppelin-contracts/blob/v2.3.0/contracts/token/ERC20/ERC20.sol\":5350:5367  _balances[sender] */\n      0xffffffffffffffffffffffffffffffffffffffff\n      and\n      0xffffffffffffffffffffffffffffffffffffffff\n      and\n      dup2\n      mstore\n      0x20\n      add\n      swap1\n      dup2\n      mstore\n      0x20\n      add\n      0x00\n      keccak256\n      sload\n        /* \"github.com/OpenZeppelin/openzeppelin-contracts/blob/v2.3.0/contracts/token/ERC20/ERC20.sol\":5350:5371  _balances[sender].sub */\n      tag_72\n      swap1\n        /* \"github.com/OpenZeppelin/openzeppelin-contracts/blob/v2.3.0/contracts/token/ERC20/ERC20.sol\":5350:5379  _balances[sender].sub(amount) */\n      swap2\n      swap1\n      0xffffffff\n      and\n      jump\t// in\n    tag_95:\n        /* \"github.com/OpenZeppelin/openzeppelin-contracts/blob/v2.3.0/contracts/token/ERC20/ERC20.sol\":5330:5339  _balances */\n      0x00\n        /* \"github.com/OpenZeppelin/openzeppelin-contracts/blob/v2.3.0/contracts/token/ERC20/ERC20.sol\":5330:5347  _balances[sender] */\n      dup1\n        /* \"github.com/OpenZeppelin/openzeppelin-contracts/blob/v2.3.0/contracts/token/ERC20/ERC20.sol\":5340:5346  sender */\n      dup6\n        /* \"github.com/OpenZeppelin/openzeppelin-contracts/blob/v2.3.0/contracts/token/ERC20/ERC20.sol\":5330:5347  _balances[sender] */\n      0xffffffffffffffffffffffffffffffffffffffff\n      and\n      0xffffffffffffffffffffffffffffffffffffffff\n      and\n      dup2\n      mstore\n      0x20\n      add\n      swap1\n      dup2\n      mstore\n      0x20\n      add\n      0x00\n      keccak256\n        /* \"github.com/OpenZeppelin/openzeppelin-contracts/blob/v2.3.0/contracts/token/ERC20/ERC20.sol\":5330:5379  _balances[sender] = _balances[sender].sub(amount) */\n      dup2\n      swap1\n      sstore\n      pop\n        /* \"github.com/OpenZeppelin/openzeppelin-contracts/blob/v2.3.0/contracts/token/ERC20/ERC20.sol\":5412:5444  _balances[recipient].add(amount) */\n      tag_96\n        /* \"github.com/OpenZeppelin/openzeppelin-contracts/blob/v2.3.0/contracts/token/ERC20/ERC20.sol\":5437:5443  amount */\n      dup2\n        /* \"github.com/OpenZeppelin/openzeppelin-contracts/blob/v2.3.0/contracts/token/ERC20/ERC20.sol\":5412:5421  _balances */\n      0x00\n        /* \"github.com/OpenZeppelin/openzeppelin-contracts/blob/v2.3.0/contracts/token/ERC20/ERC20.sol\":5412:5432  _balances[recipient] */\n      dup1\n        /* \"github.com/OpenZeppelin/openzeppelin-contracts/blob/v2.3.0/contracts/token/ERC20/ERC20.sol\":5422:5431  recipient */\n      dup6\n        /* \"github.com/OpenZeppelin/openzeppelin-contracts/blob/v2.3.0/contracts/token/ERC20/ERC20.sol\":5412:5432  _balances[recipient] */\n      0xffffffffffffffffffffffffffffffffffffffff\n      and\n      0xffffffffffffffffffffffffffffffffffffffff\n      and\n      dup2\n      mstore\n      0x20\n      add\n      swap1\n      dup2\n      mstore\n      0x20\n      add\n      0x00\n      keccak256\n      sload\n        /* \"github.com/OpenZeppelin/openzeppelin-contracts/blob/v2.3.0/contracts/token/ERC20/ERC20.sol\":5412:5436  _balances[recipient].add */\n      tag_77\n      swap1\n        /* \"github.com/OpenZeppelin/openzeppelin-contracts/blob/v2.3.0/contracts/token/ERC20/ERC20.sol\":5412:5444  _balances[recipient].add(amount) */\n      swap2\n      swap1\n      0xffffffff\n      and\n      jump\t// in\n    tag_96:\n        /* \"github.com/OpenZeppelin/openzeppelin-contracts/blob/v2.3.0/contracts/token/ERC20/ERC20.sol\":5389:5398  _balances */\n      0x00\n        /* \"github.com/OpenZeppelin/openzeppelin-contracts/blob/v2.3.0/contracts/token/ERC20/ERC20.sol\":5389:5409  _balances[recipient] */\n      dup1\n        /* \"github.com/OpenZeppelin/openzeppelin-contracts/blob/v2.3.0/contracts/token/ERC20/ERC20.sol\":5399:5408  recipient */\n      dup5\n        /* \"github.com/OpenZeppelin/openzeppelin-contracts/blob/v2.3.0/contracts/token/ERC20/ERC20.sol\":5389:5409  _balances[recipient] */\n      0xffffffffffffffffffffffffffffffffffffffff\n      and\n      0xffffffffffffffffffffffffffffffffffffffff\n      and\n      dup2\n      mstore\n      0x20\n      add\n      swap1\n      dup2\n      mstore\n      0x20\n      add\n      0x00\n      keccak256\n        /* \"github.com/OpenZeppelin/openzeppelin-contracts/blob/v2.3.0/contracts/token/ERC20/ERC20.sol\":5389:5444  _balances[recipient] = _balances[recipient].add(amount) */\n      dup2\n      swap1\n      sstore\n      pop\n        /* \"github.com/OpenZeppelin/openzeppelin-contracts/blob/v2.3.0/contracts/token/ERC20/ERC20.sol\":5476:5485  recipient */\n      dup2\n        /* \"github.com/OpenZeppelin/openzeppelin-contracts/blob/v2.3.0/contracts/token/ERC20/ERC20.sol\":5459:5494  Transfer(sender, recipient, amount) */\n      0xffffffffffffffffffffffffffffffffffffffff\n      and\n        /* \"github.com/OpenZeppelin/openzeppelin-contracts/blob/v2.3.0/contracts/token/ERC20/ERC20.sol\":5468:5474  sender */\n      dup4\n        /* \"github.com/OpenZeppelin/openzeppelin-contracts/blob/v2.3.0/contracts/token/ERC20/ERC20.sol\":5459:5494  Transfer(sender, recipient, amount) */\n      0xffffffffffffffffffffffffffffffffffffffff\n      and\n      0xddf252ad1be2c89b69c2b068fc378daa952ba7f163c4a11628f55a4df523b3ef\n        /* \"github.com/OpenZeppelin/openzeppelin-contracts/blob/v2.3.0/contracts/token/ERC20/ERC20.sol\":5487:5493  amount */\n      dup4\n        /* \"github.com/OpenZeppelin/openzeppelin-contracts/blob/v2.3.0/contracts/token/ERC20/ERC20.sol\":5459:5494  Transfer(sender, recipient, amount) */\n      mload(0x40)\n      dup1\n      dup3\n      dup2\n      mstore\n      0x20\n      add\n      swap2\n      pop\n      pop\n      mload(0x40)\n      dup1\n      swap2\n      sub\n      swap1\n      log3\n        /* \"github.com/OpenZeppelin/openzeppelin-contracts/blob/v2.3.0/contracts/token/ERC20/ERC20.sol\":5079:5501  function _transfer(address sender, address recipient, uint256 amount) internal {... */\n      pop\n      pop\n      pop\n      jump\t// out\n        /* \"github.com/OpenZeppelin/openzeppelin-contracts/blob/v2.3.0/contracts/math/SafeMath.sol\":1274:1453  function sub(uint256 a, uint256 b) internal pure returns (uint256) {... */\n    tag_72:\n        /* \"github.com/OpenZeppelin/openzeppelin-contracts/blob/v2.3.0/contracts/math/SafeMath.sol\":1332:1339  uint256 */\n      0x00\n        /* \"github.com/OpenZeppelin/openzeppelin-contracts/blob/v2.3.0/contracts/math/SafeMath.sol\":1364:1365  a */\n      dup3\n        /* \"github.com/OpenZeppelin/openzeppelin-contracts/blob/v2.3.0/contracts/math/SafeMath.sol\":1359:1360  b */\n      dup3\n        /* \"github.com/OpenZeppelin/openzeppelin-contracts/blob/v2.3.0/contracts/math/SafeMath.sol\":1359:1365  b <= a */\n      gt\n      iszero\n        /* \"github.com/OpenZeppelin/openzeppelin-contracts/blob/v2.3.0/contracts/math/SafeMath.sol\":1351:1400  require(b <= a, \"SafeMath: subtraction overflow\") */\n      tag_98\n      jumpi\n      mload(0x40)\n      0x08c379a000000000000000000000000000000000000000000000000000000000\n      dup2\n      mstore\n      0x04\n      add\n      dup1\n      dup1\n      0x20\n      add\n      dup3\n      dup2\n      sub\n      dup3\n      mstore\n      0x1e\n      dup2\n      mstore\n      0x20\n      add\n      dup1\n      0x536166654d6174683a207375627472616374696f6e206f766572666c6f770000\n      dup2\n      mstore\n      pop\n      0x20\n      add\n      swap2\n      pop\n      pop\n      mload(0x40)\n      dup1\n      swap2\n      sub\n      swap1\n      revert\n    tag_98:\n        /* \"github.com/OpenZeppelin/openzeppelin-contracts/blob/v2.3.0/contracts/math/SafeMath.sol\":1410:1419  uint256 c */\n      0x00\n        /* \"github.com/OpenZeppelin/openzeppelin-contracts/blob/v2.3.0/contracts/math/SafeMath.sol\":1426:1427  b */\n      dup3\n        /* \"github.com/OpenZeppelin/openzeppelin-contracts/blob/v2.3.0/contracts/math/SafeMath.sol\":1422:1423  a */\n      dup5\n        /* \"github.com/OpenZeppelin/openzeppelin-contracts/blob/v2.3.0/contracts/math/SafeMath.sol\":1422:1427  a - b */\n      sub\n        /* \"github.com/OpenZeppelin/openzeppelin-contracts/blob/v2.3.0/contracts/math/SafeMath.sol\":1410:1427  uint256 c = a - b */\n      swap1\n      pop\n        /* \"github.com/OpenZeppelin/openzeppelin-contracts/blob/v2.3.0/contracts/math/SafeMath.sol\":1445:1446  c */\n      dup1\n        /* \"github.com/OpenZeppelin/openzeppelin-contracts/blob/v2.3.0/contracts/math/SafeMath.sol\":1438:1446  return c */\n      swap2\n      pop\n      pop\n        /* \"github.com/OpenZeppelin/openzeppelin-contracts/blob/v2.3.0/contracts/math/SafeMath.sol\":1274:1453  function sub(uint256 a, uint256 b) internal pure returns (uint256) {... */\n      swap3\n      swap2\n      pop\n      pop\n      jump\t// out\n        /* \"github.com/OpenZeppelin/openzeppelin-contracts/blob/v2.3.0/contracts/math/SafeMath.sol\":834:1010  function add(uint256 a, uint256 b) internal pure returns (uint256) {... */\n    tag_77:\n        /* \"github.com/OpenZeppelin/openzeppelin-contracts/blob/v2.3.0/contracts/math/SafeMath.sol\":892:899  uint256 */\n      0x00\n        /* \"github.com/OpenZeppelin/openzeppelin-contracts/blob/v2.3.0/contracts/math/SafeMath.sol\":911:920  uint256 c */\n      dup1\n        /* \"github.com/OpenZeppelin/openzeppelin-contracts/blob/v2.3.0/contracts/math/SafeMath.sol\":927:928  b */\n      dup3\n        /* \"github.com/OpenZeppelin/openzeppelin-contracts/blob/v2.3.0/contracts/math/SafeMath.sol\":923:924  a */\n      dup5\n        /* \"github.com/OpenZeppelin/openzeppelin-contracts/blob/v2.3.0/contracts/math/SafeMath.sol\":923:928  a + b */\n      add\n        /* \"github.com/OpenZeppelin/openzeppelin-contracts/blob/v2.3.0/contracts/math/SafeMath.sol\":911:928  uint256 c = a + b */\n      swap1\n      pop\n        /* \"github.com/OpenZeppelin/openzeppelin-contracts/blob/v2.3.0/contracts/math/SafeMath.sol\":951:952  a */\n      dup4\n        /* \"github.com/OpenZeppelin/openzeppelin-contracts/blob/v2.3.0/contracts/math/SafeMath.sol\":946:947  c */\n      dup2\n        /* \"github.com/OpenZeppelin/openzeppelin-contracts/blob/v2.3.0/contracts/math/SafeMath.sol\":946:952  c >= a */\n      lt\n      iszero\n        /* \"github.com/OpenZeppelin/openzeppelin-contracts/blob/v2.3.0/contracts/math/SafeMath.sol\":938:984  require(c >= a, \"SafeMath: addition overflow\") */\n      tag_100\n      jumpi\n      mload(0x40)\n      0x08c379a000000000000000000000000000000000000000000000000000000000\n      dup2\n      mstore\n      0x04\n      add\n      dup1\n      dup1\n      0x20\n      add\n      dup3\n      dup2\n      sub\n      dup3\n      mstore\n      0x1b\n      dup2\n      mstore\n      0x20\n      add\n      dup1\n      0x536166654d6174683a206164646974696f6e206f766572666c6f770000000000\n      dup2\n      mstore\n      pop\n      0x20\n      add\n      swap2\n      pop\n      pop\n      mload(0x40)\n      dup1\n      swap2\n      sub\n      swap1\n      revert\n    tag_100:\n        /* \"github.com/OpenZeppelin/openzeppelin-contracts/blob/v2.3.0/contracts/math/SafeMath.sol\":1002:1003  c */\n      dup1\n        /* \"github.com/OpenZeppelin/openzeppelin-contracts/blob/v2.3.0/contracts/math/SafeMath.sol\":995:1003  return c */\n      swap2\n      pop\n      pop\n        /* \"github.com/OpenZeppelin/openzeppelin-contracts/blob/v2.3.0/contracts/math/SafeMath.sol\":834:1010  function add(uint256 a, uint256 b) internal pure returns (uint256) {... */\n      swap3\n      swap2\n      pop\n      pop\n      jump\t// out\n    stop\n    data_0557e210f7a69a685100a7e4e3d0a7024c546085cee28910fd17d0b081d9516f 45524332303a207472616e7366657220746f20746865207a65726f2061646472657373\n    data_24883cc5fe64ace9d0df1893501ecb93c77180f0ff69cca79affb3c316dc8029 45524332303a20617070726f766520746f20746865207a65726f2061646472657373\n    data_baecc556b46f4ed0f2b4cb599d60785ac8563dd2dc0a5bf12edea1c39e5e1fea 45524332303a207472616e736665722066726f6d20746865207a65726f2061646472657373\n    data_c953f4879035ed60e766b34720f656aab5c697b141d924c283124ecedb91c208 45524332303a20617070726f76652066726f6d20746865207a65726f2061646472657373\n\n    auxdata: 0xa265627a7a72315820c66c5184060709c303b84986361029e3e08bb59b8e5f753e134f99f76407f35f64736f6c63430005110032\n}\n",
				"bytecode": {
					"linkReferences": {},
					"object": "60806040523480156200001157600080fd5b506040518060400160405280600b81526020017f53696d706c65546f6b656e0000000000000000000000000000000000000000008152506040518060400160405280600381526020017f53494d0000000000000000000000000000000000000000000000000000000000815250601282600390805190602001906200009892919062000346565b508160049080519060200190620000b192919062000346565b5080600560006101000a81548160ff021916908360ff160217905550505050620000ed33601260ff16600a0a61271002620000f360201b60201c565b620003f5565b600073ffffffffffffffffffffffffffffffffffffffff168273ffffffffffffffffffffffffffffffffffffffff16141562000197576040517f08c379a000000000000000000000000000000000000000000000000000000000815260040180806020018281038252601f8152602001807f45524332303a206d696e7420746f20746865207a65726f20616464726573730081525060200191505060405180910390fd5b620001b381600254620002bd60201b62000ed91790919060201c565b60028190555062000211816000808573ffffffffffffffffffffffffffffffffffffffff1673ffffffffffffffffffffffffffffffffffffffff16815260200190815260200160002054620002bd60201b62000ed91790919060201c565b6000808473ffffffffffffffffffffffffffffffffffffffff1673ffffffffffffffffffffffffffffffffffffffff168152602001908152602001600020819055508173ffffffffffffffffffffffffffffffffffffffff16600073ffffffffffffffffffffffffffffffffffffffff167fddf252ad1be2c89b69c2b068fc378daa952ba7f163c4a11628f55a4df523b3ef836040518082815260200191505060405180910390a35050565b6000808284019050838110156200033c576040517f08c379a000000000000000000000000000000000000000000000000000000000815260040180806020018281038252601b8152602001807f536166654d6174683a206164646974696f6e206f766572666c6f77000000000081525060200191505060405180910390fd5b8091505092915050565b828054600181600116156101000203166002900490600052602060002090601f016020900481019282601f106200038957805160ff1916838001178555620003ba565b82800160010185558215620003ba579182015b82811115620003b95782518255916020019190600101906200039c565b5b509050620003c99190620003cd565b5090565b620003f291905b80821115620003ee576000816000905550600101620003d4565b5090565b90565b61102480620004056000396000f3fe608060405234801561001057600080fd5b50600436106100cf5760003560e01c8063313ce5671161008c57806395d89b411161006657806395d89b4114610385578063a457c2d714610408578063a9059cbb1461046e578063dd62ed3e146104d4576100cf565b8063313ce567146102a357806339509351146102c757806370a082311461032d576100cf565b806306fdde03146100d4578063095ea7b31461015757806318160ddd146101bd57806323b872dd146101db5780632e0f2625146102615780632ff2e9dc14610285575b600080fd5b6100dc61054c565b6040518080602001828103825283818151815260200191508051906020019080838360005b8381101561011c578082015181840152602081019050610101565b50505050905090810190601f1680156101495780820380516001836020036101000a031916815260200191505b509250505060405180910390f35b6101a36004803603604081101561016d57600080fd5b81019080803573ffffffffffffffffffffffffffffffffffffffff169060200190929190803590602001909291905050506105ee565b604051808215151515815260200191505060405180910390f35b6101c5610605565b6040518082815260200191505060405180910390f35b610247600480360360608110156101f157600080fd5b81019080803573ffffffffffffffffffffffffffffffffffffffff169060200190929190803573ffffffffffffffffffffffffffffffffffffffff1690602001909291908035906020019092919050505061060f565b604051808215151515815260200191505060405180910390f35b6102696106c0565b604051808260ff1660ff16815260200191505060405180910390f35b61028d6106c5565b6040518082815260200191505060405180910390f35b6102ab6106d4565b604051808260ff1660ff16815260200191505060405180910390f35b610313600480360360408110156102dd57600080fd5b81019080803573ffffffffffffffffffffffffffffffffffffffff169060200190929190803590602001909291905050506106eb565b604051808215151515815260200191505060405180910390f35b61036f6004803603602081101561034357600080fd5b81019080803573ffffffffffffffffffffffffffffffffffffffff169060200190929190505050610790565b6040518082815260200191505060405180910390f35b61038d6107d8565b6040518080602001828103825283818151815260200191508051906020019080838360005b838110156103cd5780820151818401526020810190506103b2565b50505050905090810190601f1680156103fa5780820380516001836020036101000a031916815260200191505b509250505060405180910390f35b6104546004803603604081101561041e57600080fd5b81019080803573ffffffffffffffffffffffffffffffffffffffff1690602001909291908035906020019092919050505061087a565b604051808215151515815260200191505060405180910390f35b6104ba6004803603604081101561048457600080fd5b81019080803573ffffffffffffffffffffffffffffffffffffffff1690602001909291908035906020019092919050505061091f565b604051808215151515815260200191505060405180910390f35b610536600480360360408110156104ea57600080fd5b81019080803573ffffffffffffffffffffffffffffffffffffffff169060200190929190803573ffffffffffffffffffffffffffffffffffffffff169060200190929190505050610936565b6040518082815260200191505060405180910390f35b606060038054600181600116156101000203166002900480601f0160208091040260200160405190810160405280929190818152602001828054600181600116156101000203166002900480156105e45780601f106105b9576101008083540402835291602001916105e4565b820191906000526020600020905b8154815290600101906020018083116105c757829003601f168201915b5050505050905090565b60006105fb3384846109bd565b6001905092915050565b6000600254905090565b600061061c848484610bb4565b6106b584336106b085600160008a73ffffffffffffffffffffffffffffffffffffffff1673ffffffffffffffffffffffffffffffffffffffff16815260200190815260200160002060003373ffffffffffffffffffffffffffffffffffffffff1673ffffffffffffffffffffffffffffffffffffffff16815260200190815260200160002054610e5090919063ffffffff16565b6109bd565b600190509392505050565b601281565b601260ff16600a0a6127100281565b6000600560009054906101000a900460ff16905090565b6000610786338461078185600160003373ffffffffffffffffffffffffffffffffffffffff1673ffffffffffffffffffffffffffffffffffffffff16815260200190815260200160002060008973ffffffffffffffffffffffffffffffffffffffff1673ffffffffffffffffffffffffffffffffffffffff16815260200190815260200160002054610ed990919063ffffffff16565b6109bd565b6001905092915050565b60008060008373ffffffffffffffffffffffffffffffffffffffff1673ffffffffffffffffffffffffffffffffffffffff168152602001908152602001600020549050919050565b606060048054600181600116156101000203166002900480601f0160208091040260200160405190810160405280929190818152602001828054600181600116156101000203166002900480156108705780601f1061084557610100808354040283529160200191610870565b820191906000526020600020905b81548152906001019060200180831161085357829003601f168201915b5050505050905090565b6000610915338461091085600160003373ffffffffffffffffffffffffffffffffffffffff1673ffffffffffffffffffffffffffffffffffffffff16815260200190815260200160002060008973ffffffffffffffffffffffffffffffffffffffff1673ffffffffffffffffffffffffffffffffffffffff16815260200190815260200160002054610e5090919063ffffffff16565b6109bd565b6001905092915050565b600061092c338484610bb4565b6001905092915050565b6000600160008473ffffffffffffffffffffffffffffffffffffffff1673ffffffffffffffffffffffffffffffffffffffff16815260200190815260200160002060008373ffffffffffffffffffffffffffffffffffffffff1673ffffffffffffffffffffffffffffffffffffffff16815260200190815260200160002054905092915050565b600073ffffffffffffffffffffffffffffffffffffffff168373ffffffffffffffffffffffffffffffffffffffff161415610a43576040517f08c379a0000000000000000000000000000000000000000000000000000000008152600401808060200182810382526024815260200180610fcc6024913960400191505060405180910390fd5b600073ffffffffffffffffffffffffffffffffffffffff168273ffffffffffffffffffffffffffffffffffffffff161415610ac9576040517f08c379a0000000000000000000000000000000000000000000000000000000008152600401808060200182810382526022815260200180610f856022913960400191505060405180910390fd5b80600160008573ffffffffffffffffffffffffffffffffffffffff1673ffffffffffffffffffffffffffffffffffffffff16815260200190815260200160002060008473ffffffffffffffffffffffffffffffffffffffff1673ffffffffffffffffffffffffffffffffffffffff168152602001908152602001600020819055508173ffffffffffffffffffffffffffffffffffffffff168373ffffffffffffffffffffffffffffffffffffffff167f8c5be1e5ebec7d5bd14f71427d1e84f3dd0314c0f7b2291e5b200ac8c7c3b925836040518082815260200191505060405180910390a3505050565b600073ffffffffffffffffffffffffffffffffffffffff168373ffffffffffffffffffffffffffffffffffffffff161415610c3a576040517f08c379a0000000000000000000000000000000000000000000000000000000008152600401808060200182810382526025815260200180610fa76025913960400191505060405180910390fd5b600073ffffffffffffffffffffffffffffffffffffffff168273ffffffffffffffffffffffffffffffffffffffff161415610cc0576040517f08c379a0000000000000000000000000000000000000000000000000000000008152600401808060200182810382526023815260200180610f626023913960400191505060405180910390fd5b610d11816000808673ffffffffffffffffffffffffffffffffffffffff1673ffffffffffffffffffffffffffffffffffffffff16815260200190815260200160002054610e5090919063ffffffff16565b6000808573ffffffffffffffffffffffffffffffffffffffff1673ffffffffffffffffffffffffffffffffffffffff16815260200190815260200160002081905550610da4816000808573ffffffffffffffffffffffffffffffffffffffff1673ffffffffffffffffffffffffffffffffffffffff16815260200190815260200160002054610ed990919063ffffffff16565b6000808473ffffffffffffffffffffffffffffffffffffffff1673ffffffffffffffffffffffffffffffffffffffff168152602001908152602001600020819055508173ffffffffffffffffffffffffffffffffffffffff168373ffffffffffffffffffffffffffffffffffffffff167fddf252ad1be2c89b69c2b068fc378daa952ba7f163c4a11628f55a4df523b3ef836040518082815260200191505060405180910390a3505050565b600082821115610ec8576040517f08c379a000000000000000000000000000000000000000000000000000000000815260040180806020018281038252601e8152602001807f536166654d6174683a207375627472616374696f6e206f766572666c6f77000081525060200191505060405180910390fd5b600082840390508091505092915050565b600080828401905083811015610f57576040517f08c379a000000000000000000000000000000000000000000000000000000000815260040180806020018281038252601b8152602001807f536166654d6174683a206164646974696f6e206f766572666c6f77000000000081525060200191505060405180910390fd5b809150509291505056fe45524332303a207472616e7366657220746f20746865207a65726f206164647265737345524332303a20617070726f766520746f20746865207a65726f206164647265737345524332303a207472616e736665722066726f6d20746865207a65726f206164647265737345524332303a20617070726f76652066726f6d20746865207a65726f2061646472657373a265627a7a72315820c66c5184060709c303b84986361029e3e08bb59b8e5f753e134f99f76407f35f64736f6c63430005110032",
					"opcodes": "PUSH1 0x80 PUSH1 0x40 MSTORE CALLVALUE DUP1 ISZERO PUSH3 0x11 JUMPI PUSH1 0x0 DUP1 REVERT JUMPDEST POP PUSH1 0x40 MLOAD DUP1 PUSH1 0x40 ADD PUSH1 0x40 MSTORE DUP1 PUSH1 0xB DUP2 MSTORE PUSH1 0x20 ADD PUSH32 0x53696D706C65546F6B656E000000000000000000000000000000000000000000 DUP2 MSTORE POP PUSH1 0x40 MLOAD DUP1 PUSH1 0x40 ADD PUSH1 0x40 MSTORE DUP1 PUSH1 0x3 DUP2 MSTORE PUSH1 0x20 ADD PUSH32 0x53494D0000000000000000000000000000000000000000000000000000000000 DUP2 MSTORE POP PUSH1 0x12 DUP3 PUSH1 0x3 SWAP1 DUP1 MLOAD SWAP1 PUSH1 0x20 ADD SWAP1 PUSH3 0x98 SWAP3 SWAP2 SWAP1 PUSH3 0x346 JUMP JUMPDEST POP DUP2 PUSH1 0x4 SWAP1 DUP1 MLOAD SWAP1 PUSH1 0x20 ADD SWAP1 PUSH3 0xB1 SWAP3 SWAP2 SWAP1 PUSH3 0x346 JUMP JUMPDEST POP DUP1 PUSH1 0x5 PUSH1 0x0 PUSH2 0x100 EXP DUP2 SLOAD DUP2 PUSH1 0xFF MUL NOT AND SWAP1 DUP4 PUSH1 0xFF AND MUL OR SWAP1 SSTORE POP POP POP POP PUSH3 0xED CALLER PUSH1 0x12 PUSH1 0xFF AND PUSH1 0xA EXP PUSH2 0x2710 MUL PUSH3 0xF3 PUSH1 0x20 SHL PUSH1 0x20 SHR JUMP JUMPDEST PUSH3 0x3F5 JUMP JUMPDEST PUSH1 0x0 PUSH20 0xFFFFFFFFFFFFFFFFFFFFFFFFFFFFFFFFFFFFFFFF AND DUP3 PUSH20 0xFFFFFFFFFFFFFFFFFFFFFFFFFFFFFFFFFFFFFFFF AND EQ ISZERO PUSH3 0x197 JUMPI PUSH1 0x40 MLOAD PUSH32 0x8C379A000000000000000000000000000000000000000000000000000000000 DUP2 MSTORE PUSH1 0x4 ADD DUP1 DUP1 PUSH1 0x20 ADD DUP3 DUP2 SUB DUP3 MSTORE PUSH1 0x1F DUP2 MSTORE PUSH1 0x20 ADD DUP1 PUSH32 0x45524332303A206D696E7420746F20746865207A65726F206164647265737300 DUP2 MSTORE POP PUSH1 0x20 ADD SWAP2 POP POP PUSH1 0x40 MLOAD DUP1 SWAP2 SUB SWAP1 REVERT JUMPDEST PUSH3 0x1B3 DUP2 PUSH1 0x2 SLOAD PUSH3 0x2BD PUSH1 0x20 SHL PUSH3 0xED9 OR SWAP1 SWAP2 SWAP1 PUSH1 0x20 SHR JUMP JUMPDEST PUSH1 0x2 DUP2 SWAP1 SSTORE POP PUSH3 0x211 DUP2 PUSH1 0x0 DUP1 DUP6 PUSH20 0xFFFFFFFFFFFFFFFFFFFFFFFFFFFFFFFFFFFFFFFF AND PUSH20 0xFFFFFFFFFFFFFFFFFFFFFFFFFFFFFFFFFFFFFFFF AND DUP2 MSTORE PUSH1 0x20 ADD SWAP1 DUP2 MSTORE PUSH1 0x20 ADD PUSH1 0x0 KECCAK256 SLOAD PUSH3 0x2BD PUSH1 0x20 SHL PUSH3 0xED9 OR SWAP1 SWAP2 SWAP1 PUSH1 0x20 SHR JUMP JUMPDEST PUSH1 0x0 DUP1 DUP5 PUSH20 0xFFFFFFFFFFFFFFFFFFFFFFFFFFFFFFFFFFFFFFFF AND PUSH20 0xFFFFFFFFFFFFFFFFFFFFFFFFFFFFFFFFFFFFFFFF AND DUP2 MSTORE PUSH1 0x20 ADD SWAP1 DUP2 MSTORE PUSH1 0x20 ADD PUSH1 0x0 KECCAK256 DUP2 SWAP1 SSTORE POP DUP2 PUSH20 0xFFFFFFFFFFFFFFFFFFFFFFFFFFFFFFFFFFFFFFFF AND PUSH1 0x0 PUSH20 0xFFFFFFFFFFFFFFFFFFFFFFFFFFFFFFFFFFFFFFFF AND PUSH32 0xDDF252AD1BE2C89B69C2B068FC378DAA952BA7F163C4A11628F55A4DF523B3EF DUP4 PUSH1 0x40 MLOAD DUP1 DUP3 DUP2 MSTORE PUSH1 0x20 ADD SWAP2 POP POP PUSH1 0x40 MLOAD DUP1 SWAP2 SUB SWAP1 LOG3 POP POP JUMP JUMPDEST PUSH1 0x0 DUP1 DUP3 DUP5 ADD SWAP1 POP DUP4 DUP2 LT ISZERO PUSH3 0x33C JUMPI PUSH1 0x40 MLOAD PUSH32 0x8C379A000000000000000000000000000000000000000000000000000000000 DUP2 MSTORE PUSH1 0x4 ADD DUP1 DUP1 PUSH1 0x20 ADD DUP3 DUP2 SUB DUP3 MSTORE PUSH1 0x1B DUP2 MSTORE PUSH1 0x20 ADD DUP1 PUSH32 0x536166654D6174683A206164646974696F6E206F766572666C6F770000000000 DUP2 MSTORE POP PUSH1 0x20 ADD SWAP2 POP POP PUSH1 0x40 MLOAD DUP1 SWAP2 SUB SWAP1 REVERT JUMPDEST DUP1 SWAP2 POP POP SWAP3 SWAP2 POP POP JUMP JUMPDEST DUP3 DUP1 SLOAD PUSH1 0x1 DUP2 PUSH1 0x1 AND ISZERO PUSH2 0x100 MUL SUB AND PUSH1 0x2 SWAP1 DIV SWAP1 PUSH1 0x0 MSTORE PUSH1 0x20 PUSH1 0x0 KECCAK256 SWAP1 PUSH1 0x1F ADD PUSH1 0x20 SWAP1 DIV DUP2 ADD SWAP3 DUP3 PUSH1 0x1F LT PUSH3 0x389 JUMPI DUP1 MLOAD PUSH1 0xFF NOT AND DUP4 DUP1 ADD OR DUP6 SSTORE PUSH3 0x3BA JUMP JUMPDEST DUP3 DUP1 ADD PUSH1 0x1 ADD DUP6 SSTORE DUP3 ISZERO PUSH3 0x3BA JUMPI SWAP2 DUP3 ADD JUMPDEST DUP3 DUP2 GT ISZERO PUSH3 0x3B9 JUMPI DUP3 MLOAD DUP3 SSTORE SWAP2 PUSH1 0x20 ADD SWAP2 SWAP1 PUSH1 0x1 ADD SWAP1 PUSH3 0x39C JUMP JUMPDEST JUMPDEST POP SWAP1 POP PUSH3 0x3C9 SWAP2 SWAP1 PUSH3 0x3CD JUMP JUMPDEST POP SWAP1 JUMP JUMPDEST PUSH3 0x3F2 SWAP2 SWAP1 JUMPDEST DUP1 DUP3 GT ISZERO PUSH3 0x3EE JUMPI PUSH1 0x0 DUP2 PUSH1 0x0 SWAP1 SSTORE POP PUSH1 0x1 ADD PUSH3 0x3D4 JUMP JUMPDEST POP SWAP1 JUMP JUMPDEST SWAP1 JUMP JUMPDEST PUSH2 0x1024 DUP1 PUSH3 0x405 PUSH1 0x0 CODECOPY PUSH1 0x0 RETURN INVALID PUSH1 0x80 PUSH1 0x40 MSTORE CALLVALUE DUP1 ISZERO PUSH2 0x10 JUMPI PUSH1 0x0 DUP1 REVERT JUMPDEST POP PUSH1 0x4 CALLDATASIZE LT PUSH2 0xCF JUMPI PUSH1 0x0 CALLDATALOAD PUSH1 0xE0 SHR DUP1 PUSH4 0x313CE567 GT PUSH2 0x8C JUMPI DUP1 PUSH4 0x95D89B41 GT PUSH2 0x66 JUMPI DUP1 PUSH4 0x95D89B41 EQ PUSH2 0x385 JUMPI DUP1 PUSH4 0xA457C2D7 EQ PUSH2 0x408 JUMPI DUP1 PUSH4 0xA9059CBB EQ PUSH2 0x46E JUMPI DUP1 PUSH4 0xDD62ED3E EQ PUSH2 0x4D4 JUMPI PUSH2 0xCF JUMP JUMPDEST DUP1 PUSH4 0x313CE567 EQ PUSH2 0x2A3 JUMPI DUP1 PUSH4 0x39509351 EQ PUSH2 0x2C7 JUMPI DUP1 PUSH4 0x70A08231 EQ PUSH2 0x32D JUMPI PUSH2 0xCF JUMP JUMPDEST DUP1 PUSH4 0x6FDDE03 EQ PUSH2 0xD4 JUMPI DUP1 PUSH4 0x95EA7B3 EQ PUSH2 0x157 JUMPI DUP1 PUSH4 0x18160DDD EQ PUSH2 0x1BD JUMPI DUP1 PUSH4 0x23B872DD EQ PUSH2 0x1DB JUMPI DUP1 PUSH4 0x2E0F2625 EQ PUSH2 0x261 JUMPI DUP1 PUSH4 0x2FF2E9DC EQ PUSH2 0x285 JUMPI JUMPDEST PUSH1 0x0 DUP1 REVERT JUMPDEST PUSH2 0xDC PUSH2 0x54C JUMP JUMPDEST PUSH1 0x40 MLOAD DUP1 DUP1 PUSH1 0x20 ADD DUP3 DUP2 SUB DUP3 MSTORE DUP4 DUP2 DUP2 MLOAD DUP2 MSTORE PUSH1 0x20 ADD SWAP2 POP DUP1 MLOAD SWAP1 PUSH1 0x20 ADD SWAP1 DUP1 DUP4 DUP4 PUSH1 0x0 JUMPDEST DUP4 DUP2 LT ISZERO PUSH2 0x11C JUMPI DUP1 DUP3 ADD MLOAD DUP2 DUP5 ADD MSTORE PUSH1 0x20 DUP2 ADD SWAP1 POP PUSH2 0x101 JUMP JUMPDEST POP POP POP POP SWAP1 POP SWAP1 DUP2 ADD SWAP1 PUSH1 0x1F AND DUP1 ISZERO PUSH2 0x149 JUMPI DUP1 DUP3 SUB DUP1 MLOAD PUSH1 0x1 DUP4 PUSH1 0x20 SUB PUSH2 0x100 EXP SUB NOT AND DUP2 MSTORE PUSH1 0x20 ADD SWAP2 POP JUMPDEST POP SWAP3 POP POP POP PUSH1 0x40 MLOAD DUP1 SWAP2 SUB SWAP1 RETURN JUMPDEST PUSH2 0x1A3 PUSH1 0x4 DUP1 CALLDATASIZE SUB PUSH1 0x40 DUP2 LT ISZERO PUSH2 0x16D JUMPI PUSH1 0x0 DUP1 REVERT JUMPDEST DUP2 ADD SWAP1 DUP1 DUP1 CALLDATALOAD PUSH20 0xFFFFFFFFFFFFFFFFFFFFFFFFFFFFFFFFFFFFFFFF AND SWAP1 PUSH1 0x20 ADD SWAP1 SWAP3 SWAP2 SWAP1 DUP1 CALLDATALOAD SWAP1 PUSH1 0x20 ADD SWAP1 SWAP3 SWAP2 SWAP1 POP POP POP PUSH2 0x5EE JUMP JUMPDEST PUSH1 0x40 MLOAD DUP1 DUP3 ISZERO ISZERO ISZERO ISZERO DUP2 MSTORE PUSH1 0x20 ADD SWAP2 POP POP PUSH1 0x40 MLOAD DUP1 SWAP2 SUB SWAP1 RETURN JUMPDEST PUSH2 0x1C5 PUSH2 0x605 JUMP JUMPDEST PUSH1 0x40 MLOAD DUP1 DUP3 DUP2 MSTORE PUSH1 0x20 ADD SWAP2 POP POP PUSH1 0x40 MLOAD DUP1 SWAP2 SUB SWAP1 RETURN JUMPDEST PUSH2 0x247 PUSH1 0x4 DUP1 CALLDATASIZE SUB PUSH1 0x60 DUP2 LT ISZERO PUSH2 0x1F1 JUMPI PUSH1 0x0 DUP1 REVERT JUMPDEST DUP2 ADD SWAP1 DUP1 DUP1 CALLDATALOAD PUSH20 0xFFFFFFFFFFFFFFFFFFFFFFFFFFFFFFFFFFFFFFFF AND SWAP1 PUSH1 0x20 ADD SWAP1 SWAP3 SWAP2 SWAP1 DUP1 CALLDATALOAD PUSH20 0xFFFFFFFFFFFFFFFFFFFFFFFFFFFFFFFFFFFFFFFF AND SWAP1 PUSH1 0x20 ADD SWAP1 SWAP3 SWAP2 SWAP1 DUP1 CALLDATALOAD SWAP1 PUSH1 0x20 ADD SWAP1 SWAP3 SWAP2 SWAP1 POP POP POP PUSH2 0x60F JUMP JUMPDEST PUSH1 0x40 MLOAD DUP1 DUP3 ISZERO ISZERO ISZERO ISZERO DUP2 MSTORE PUSH1 0x20 ADD SWAP2 POP POP PUSH1 0x40 MLOAD DUP1 SWAP2 SUB SWAP1 RETURN JUMPDEST PUSH2 0x269 PUSH2 0x6C0 JUMP JUMPDEST PUSH1 0x40 MLOAD DUP1 DUP3 PUSH1 0xFF AND PUSH1 0xFF AND DUP2 MSTORE PUSH1 0x20 ADD SWAP2 POP POP PUSH1 0x40 MLOAD DUP1 SWAP2 SUB SWAP1 RETURN JUMPDEST PUSH2 0x28D PUSH2 0x6C5 JUMP JUMPDEST PUSH1 0x40 MLOAD DUP1 DUP3 DUP2 MSTORE PUSH1 0x20 ADD SWAP2 POP POP PUSH1 0x40 MLOAD DUP1 SWAP2 SUB SWAP1 RETURN JUMPDEST PUSH2 0x2AB PUSH2 0x6D4 JUMP JUMPDEST PUSH1 0x40 MLOAD DUP1 DUP3 PUSH1 0xFF AND PUSH1 0xFF AND DUP2 MSTORE PUSH1 0x20 ADD SWAP2 POP POP PUSH1 0x40 MLOAD DUP1 SWAP2 SUB SWAP1 RETURN JUMPDEST PUSH2 0x313 PUSH1 0x4 DUP1 CALLDATASIZE SUB PUSH1 0x40 DUP2 LT ISZERO PUSH2 0x2DD JUMPI PUSH1 0x0 DUP1 REVERT JUMPDEST DUP2 ADD SWAP1 DUP1 DUP1 CALLDATALOAD PUSH20 0xFFFFFFFFFFFFFFFFFFFFFFFFFFFFFFFFFFFFFFFF AND SWAP1 PUSH1 0x20 ADD SWAP1 SWAP3 SWAP2 SWAP1 DUP1 CALLDATALOAD SWAP1 PUSH1 0x20 ADD SWAP1 SWAP3 SWAP2 SWAP1 POP POP POP PUSH2 0x6EB JUMP JUMPDEST PUSH1 0x40 MLOAD DUP1 DUP3 ISZERO ISZERO ISZERO ISZERO DUP2 MSTORE PUSH1 0x20 ADD SWAP2 POP POP PUSH1 0x40 MLOAD DUP1 SWAP2 SUB SWAP1 RETURN JUMPDEST PUSH2 0x36F PUSH1 0x4 DUP1 CALLDATASIZE SUB PUSH1 0x20 DUP2 LT ISZERO PUSH2 0x343 JUMPI PUSH1 0x0 DUP1 REVERT JUMPDEST DUP2 ADD SWAP1 DUP1 DUP1 CALLDATALOAD PUSH20 0xFFFFFFFFFFFFFFFFFFFFFFFFFFFFFFFFFFFFFFFF AND SWAP1 PUSH1 0x20 ADD SWAP1 SWAP3 SWAP2 SWAP1 POP POP POP PUSH2 0x790 JUMP JUMPDEST PUSH1 0x40 MLOAD DUP1 DUP3 DUP2 MSTORE PUSH1 0x20 ADD SWAP2 POP POP PUSH1 0x40 MLOAD DUP1 SWAP2 SUB SWAP1 RETURN JUMPDEST PUSH2 0x38D PUSH2 0x7D8 JUMP JUMPDEST PUSH1 0x40 MLOAD DUP1 DUP1 PUSH1 0x20 ADD DUP3 DUP2 SUB DUP3 MSTORE DUP4 DUP2 DUP2 MLOAD DUP2 MSTORE PUSH1 0x20 ADD SWAP2 POP DUP1 MLOAD SWAP1 PUSH1 0x20 ADD SWAP1 DUP1 DUP4 DUP4 PUSH1 0x0 JUMPDEST DUP4 DUP2 LT ISZERO PUSH2 0x3CD JUMPI DUP1 DUP3 ADD MLOAD DUP2 DUP5 ADD MSTORE PUSH1 0x20 DUP2 ADD SWAP1 POP PUSH2 0x3B2 JUMP JUMPDEST POP POP POP POP SWAP1 POP SWAP1 DUP2 ADD SWAP1 PUSH1 0x1F AND DUP1 ISZERO PUSH2 0x3FA JUMPI DUP1 DUP3 SUB DUP1 MLOAD PUSH1 0x1 DUP4 PUSH1 0x20 SUB PUSH2 0x100 EXP SUB NOT AND DUP2 MSTORE PUSH1 0x20 ADD SWAP2 POP JUMPDEST POP SWAP3 POP POP POP PUSH1 0x40 MLOAD DUP1 SWAP2 SUB SWAP1 RETURN JUMPDEST PUSH2 0x454 PUSH1 0x4 DUP1 CALLDATASIZE SUB PUSH1 0x40 DUP2 LT ISZERO PUSH2 0x41E JUMPI PUSH1 0x0 DUP1 REVERT JUMPDEST DUP2 ADD SWAP1 DUP1 DUP1 CALLDATALOAD PUSH20 0xFFFFFFFFFFFFFFFFFFFFFFFFFFFFFFFFFFFFFFFF AND SWAP1 PUSH1 0x20 ADD SWAP1 SWAP3 SWAP2 SWAP1 DUP1 CALLDATALOAD SWAP1 PUSH1 0x20 ADD SWAP1 SWAP3 SWAP2 SWAP1 POP POP POP PUSH2 0x87A JUMP JUMPDEST PUSH1 0x40 MLOAD DUP1 DUP3 ISZERO ISZERO ISZERO ISZERO DUP2 MSTORE PUSH1 0x20 ADD SWAP2 POP POP PUSH1 0x40 MLOAD DUP1 SWAP2 SUB SWAP1 RETURN JUMPDEST PUSH2 0x4BA PUSH1 0x4 DUP1 CALLDATASIZE SUB PUSH1 0x40 DUP2 LT ISZERO PUSH2 0x484 JUMPI PUSH1 0x0 DUP1 REVERT JUMPDEST DUP2 ADD SWAP1 DUP1 DUP1 CALLDATALOAD PUSH20 0xFFFFFFFFFFFFFFFFFFFFFFFFFFFFFFFFFFFFFFFF AND SWAP1 PUSH1 0x20 ADD SWAP1 SWAP3 SWAP2 SWAP1 DUP1 CALLDATALOAD SWAP1 PUSH1 0x20 ADD SWAP1 SWAP3 SWAP2 SWAP1 POP POP POP PUSH2 0x91F JUMP JUMPDEST PUSH1 0x40 MLOAD DUP1 DUP3 ISZERO ISZERO ISZERO ISZERO DUP2 MSTORE PUSH1 0x20 ADD SWAP2 POP POP PUSH1 0x40 MLOAD DUP1 SWAP2 SUB SWAP1 RETURN JUMPDEST PUSH2 0x536 PUSH1 0x4 DUP1 CALLDATASIZE SUB PUSH1 0x40 DUP2 LT ISZERO PUSH2 0x4EA JUMPI PUSH1 0x0 DUP1 REVERT JUMPDEST DUP2 ADD SWAP1 DUP1 DUP1 CALLDATALOAD PUSH20 0xFFFFFFFFFFFFFFFFFFFFFFFFFFFFFFFFFFFFFFFF AND SWAP1 PUSH1 0x20 ADD SWAP1 SWAP3 SWAP2 SWAP1 DUP1 CALLDATALOAD PUSH20 0xFFFFFFFFFFFFFFFFFFFFFFFFFFFFFFFFFFFFFFFF AND SWAP1 PUSH1 0x20 ADD SWAP1 SWAP3 SWAP2 SWAP1 POP POP POP PUSH2 0x936 JUMP JUMPDEST PUSH1 0x40 MLOAD DUP1 DUP3 DUP2 MSTORE PUSH1 0x20 ADD SWAP2 POP POP PUSH1 0x40 MLOAD DUP1 SWAP2 SUB SWAP1 RETURN JUMPDEST PUSH1 0x60 PUSH1 0x3 DUP1 SLOAD PUSH1 0x1 DUP2 PUSH1 0x1 AND ISZERO PUSH2 0x100 MUL SUB AND PUSH1 0x2 SWAP1 DIV DUP1 PUSH1 0x1F ADD PUSH1 0x20 DUP1 SWAP2 DIV MUL PUSH1 0x20 ADD PUSH1 0x40 MLOAD SWAP1 DUP2 ADD PUSH1 0x40 MSTORE DUP1 SWAP3 SWAP2 SWAP1 DUP2 DUP2 MSTORE PUSH1 0x20 ADD DUP3 DUP1 SLOAD PUSH1 0x1 DUP2 PUSH1 0x1 AND ISZERO PUSH2 0x100 MUL SUB AND PUSH1 0x2 SWAP1 DIV DUP1 ISZERO PUSH2 0x5E4 JUMPI DUP1 PUSH1 0x1F LT PUSH2 0x5B9 JUMPI PUSH2 0x100 DUP1 DUP4 SLOAD DIV MUL DUP4 MSTORE SWAP2 PUSH1 0x20 ADD SWAP2 PUSH2 0x5E4 JUMP JUMPDEST DUP3 ADD SWAP2 SWAP1 PUSH1 0x0 MSTORE PUSH1 0x20 PUSH1 0x0 KECCAK256 SWAP1 JUMPDEST DUP2 SLOAD DUP2 MSTORE SWAP1 PUSH1 0x1 ADD SWAP1 PUSH1 0x20 ADD DUP1 DUP4 GT PUSH2 0x5C7 JUMPI DUP3 SWAP1 SUB PUSH1 0x1F AND DUP3 ADD SWAP2 JUMPDEST POP POP POP POP POP SWAP1 POP SWAP1 JUMP JUMPDEST PUSH1 0x0 PUSH2 0x5FB CALLER DUP5 DUP5 PUSH2 0x9BD JUMP JUMPDEST PUSH1 0x1 SWAP1 POP SWAP3 SWAP2 POP POP JUMP JUMPDEST PUSH1 0x0 PUSH1 0x2 SLOAD SWAP1 POP SWAP1 JUMP JUMPDEST PUSH1 0x0 PUSH2 0x61C DUP5 DUP5 DUP5 PUSH2 0xBB4 JUMP JUMPDEST PUSH2 0x6B5 DUP5 CALLER PUSH2 0x6B0 DUP6 PUSH1 0x1 PUSH1 0x0 DUP11 PUSH20 0xFFFFFFFFFFFFFFFFFFFFFFFFFFFFFFFFFFFFFFFF AND PUSH20 0xFFFFFFFFFFFFFFFFFFFFFFFFFFFFFFFFFFFFFFFF AND DUP2 MSTORE PUSH1 0x20 ADD SWAP1 DUP2 MSTORE PUSH1 0x20 ADD PUSH1 0x0 KECCAK256 PUSH1 0x0 CALLER PUSH20 0xFFFFFFFFFFFFFFFFFFFFFFFFFFFFFFFFFFFFFFFF AND PUSH20 0xFFFFFFFFFFFFFFFFFFFFFFFFFFFFFFFFFFFFFFFF AND DUP2 MSTORE PUSH1 0x20 ADD SWAP1 DUP2 MSTORE PUSH1 0x20 ADD PUSH1 0x0 KECCAK256 SLOAD PUSH2 0xE50 SWAP1 SWAP2 SWAP1 PUSH4 0xFFFFFFFF AND JUMP JUMPDEST PUSH2 0x9BD JUMP JUMPDEST PUSH1 0x1 SWAP1 POP SWAP4 SWAP3 POP POP POP JUMP JUMPDEST PUSH1 0x12 DUP2 JUMP JUMPDEST PUSH1 0x12 PUSH1 0xFF AND PUSH1 0xA EXP PUSH2 0x2710 MUL DUP2 JUMP JUMPDEST PUSH1 0x0 PUSH1 0x5 PUSH1 0x0 SWAP1 SLOAD SWAP1 PUSH2 0x100 EXP SWAP1 DIV PUSH1 0xFF AND SWAP1 POP SWAP1 JUMP JUMPDEST PUSH1 0x0 PUSH2 0x786 CALLER DUP5 PUSH2 0x781 DUP6 PUSH1 0x1 PUSH1 0x0 CALLER PUSH20 0xFFFFFFFFFFFFFFFFFFFFFFFFFFFFFFFFFFFFFFFF AND PUSH20 0xFFFFFFFFFFFFFFFFFFFFFFFFFFFFFFFFFFFFFFFF AND DUP2 MSTORE PUSH1 0x20 ADD SWAP1 DUP2 MSTORE PUSH1 0x20 ADD PUSH1 0x0 KECCAK256 PUSH1 0x0 DUP10 PUSH20 0xFFFFFFFFFFFFFFFFFFFFFFFFFFFFFFFFFFFFFFFF AND PUSH20 0xFFFFFFFFFFFFFFFFFFFFFFFFFFFFFFFFFFFFFFFF AND DUP2 MSTORE PUSH1 0x20 ADD SWAP1 DUP2 MSTORE PUSH1 0x20 ADD PUSH1 0x0 KECCAK256 SLOAD PUSH2 0xED9 SWAP1 SWAP2 SWAP1 PUSH4 0xFFFFFFFF AND JUMP JUMPDEST PUSH2 0x9BD JUMP JUMPDEST PUSH1 0x1 SWAP1 POP SWAP3 SWAP2 POP POP JUMP JUMPDEST PUSH1 0x0 DUP1 PUSH1 0x0 DUP4 PUSH20 0xFFFFFFFFFFFFFFFFFFFFFFFFFFFFFFFFFFFFFFFF AND PUSH20 0xFFFFFFFFFFFFFFFFFFFFFFFFFFFFFFFFFFFFFFFF AND DUP2 MSTORE PUSH1 0x20 ADD SWAP1 DUP2 MSTORE PUSH1 0x20 ADD PUSH1 0x0 KECCAK256 SLOAD SWAP1 POP SWAP2 SWAP1 POP JUMP JUMPDEST PUSH1 0x60 PUSH1 0x4 DUP1 SLOAD PUSH1 0x1 DUP2 PUSH1 0x1 AND ISZERO PUSH2 0x100 MUL SUB AND PUSH1 0x2 SWAP1 DIV DUP1 PUSH1 0x1F ADD PUSH1 0x20 DUP1 SWAP2 DIV MUL PUSH1 0x20 ADD PUSH1 0x40 MLOAD SWAP1 DUP2 ADD PUSH1 0x40 MSTORE DUP1 SWAP3 SWAP2 SWAP1 DUP2 DUP2 MSTORE PUSH1 0x20 ADD DUP3 DUP1 SLOAD PUSH1 0x1 DUP2 PUSH1 0x1 AND ISZERO PUSH2 0x100 MUL SUB AND PUSH1 0x2 SWAP1 DIV DUP1 ISZERO PUSH2 0x870 JUMPI DUP1 PUSH1 0x1F LT PUSH2 0x845 JUMPI PUSH2 0x100 DUP1 DUP4 SLOAD DIV MUL DUP4 MSTORE SWAP2 PUSH1 0x20 ADD SWAP2 PUSH2 0x870 JUMP JUMPDEST DUP3 ADD SWAP2 SWAP1 PUSH1 0x0 MSTORE PUSH1 0x20 PUSH1 0x0 KECCAK256 SWAP1 JUMPDEST DUP2 SLOAD DUP2 MSTORE SWAP1 PUSH1 0x1 ADD SWAP1 PUSH1 0x20 ADD DUP1 DUP4 GT PUSH2 0x853 JUMPI DUP3 SWAP1 SUB PUSH1 0x1F AND DUP3 ADD SWAP2 JUMPDEST POP POP POP POP POP SWAP1 POP SWAP1 JUMP JUMPDEST PUSH1 0x0 PUSH2 0x915 CALLER DUP5 PUSH2 0x910 DUP6 PUSH1 0x1 PUSH1 0x0 CALLER PUSH20 0xFFFFFFFFFFFFFFFFFFFFFFFFFFFFFFFFFFFFFFFF AND PUSH20 0xFFFFFFFFFFFFFFFFFFFFFFFFFFFFFFFFFFFFFFFF AND DUP2 MSTORE PUSH1 0x20 ADD SWAP1 DUP2 MSTORE PUSH1 0x20 ADD PUSH1 0x0 KECCAK256 PUSH1 0x0 DUP10 PUSH20 0xFFFFFFFFFFFFFFFFFFFFFFFFFFFFFFFFFFFFFFFF AND PUSH20 0xFFFFFFFFFFFFFFFFFFFFFFFFFFFFFFFFFFFFFFFF AND DUP2 MSTORE PUSH1 0x20 ADD SWAP1 DUP2 MSTORE PUSH1 0x20 ADD PUSH1 0x0 KECCAK256 SLOAD PUSH2 0xE50 SWAP1 SWAP2 SWAP1 PUSH4 0xFFFFFFFF AND JUMP JUMPDEST PUSH2 0x9BD JUMP JUMPDEST PUSH1 0x1 SWAP1 POP SWAP3 SWAP2 POP POP JUMP JUMPDEST PUSH1 0x0 PUSH2 0x92C CALLER DUP5 DUP5 PUSH2 0xBB4 JUMP JUMPDEST PUSH1 0x1 SWAP1 POP SWAP3 SWAP2 POP POP JUMP JUMPDEST PUSH1 0x0 PUSH1 0x1 PUSH1 0x0 DUP5 PUSH20 0xFFFFFFFFFFFFFFFFFFFFFFFFFFFFFFFFFFFFFFFF AND PUSH20 0xFFFFFFFFFFFFFFFFFFFFFFFFFFFFFFFFFFFFFFFF AND DUP2 MSTORE PUSH1 0x20 ADD SWAP1 DUP2 MSTORE PUSH1 0x20 ADD PUSH1 0x0 KECCAK256 PUSH1 0x0 DUP4 PUSH20 0xFFFFFFFFFFFFFFFFFFFFFFFFFFFFFFFFFFFFFFFF AND PUSH20 0xFFFFFFFFFFFFFFFFFFFFFFFFFFFFFFFFFFFFFFFF AND DUP2 MSTORE PUSH1 0x20 ADD SWAP1 DUP2 MSTORE PUSH1 0x20 ADD PUSH1 0x0 KECCAK256 SLOAD SWAP1 POP SWAP3 SWAP2 POP POP JUMP JUMPDEST PUSH1 0x0 PUSH20 0xFFFFFFFFFFFFFFFFFFFFFFFFFFFFFFFFFFFFFFFF AND DUP4 PUSH20 0xFFFFFFFFFFFFFFFFFFFFFFFFFFFFFFFFFFFFFFFF AND EQ ISZERO PUSH2 0xA43 JUMPI PUSH1 0x40 MLOAD PUSH32 0x8C379A000000000000000000000000000000000000000000000000000000000 DUP2 MSTORE PUSH1 0x4 ADD DUP1 DUP1 PUSH1 0x20 ADD DUP3 DUP2 SUB DUP3 MSTORE PUSH1 0x24 DUP2 MSTORE PUSH1 0x20 ADD DUP1 PUSH2 0xFCC PUSH1 0x24 SWAP2 CODECOPY PUSH1 0x40 ADD SWAP2 POP POP PUSH1 0x40 MLOAD DUP1 SWAP2 SUB SWAP1 REVERT JUMPDEST PUSH1 0x0 PUSH20 0xFFFFFFFFFFFFFFFFFFFFFFFFFFFFFFFFFFFFFFFF AND DUP3 PUSH20 0xFFFFFFFFFFFFFFFFFFFFFFFFFFFFFFFFFFFFFFFF AND EQ ISZERO PUSH2 0xAC9 JUMPI PUSH1 0x40 MLOAD PUSH32 0x8C379A000000000000000000000000000000000000000000000000000000000 DUP2 MSTORE PUSH1 0x4 ADD DUP1 DUP1 PUSH1 0x20 ADD DUP3 DUP2 SUB DUP3 MSTORE PUSH1 0x22 DUP2 MSTORE PUSH1 0x20 ADD DUP1 PUSH2 0xF85 PUSH1 0x22 SWAP2 CODECOPY PUSH1 0x40 ADD SWAP2 POP POP PUSH1 0x40 MLOAD DUP1 SWAP2 SUB SWAP1 REVERT JUMPDEST DUP1 PUSH1 0x1 PUSH1 0x0 DUP6 PUSH20 0xFFFFFFFFFFFFFFFFFFFFFFFFFFFFFFFFFFFFFFFF AND PUSH20 0xFFFFFFFFFFFFFFFFFFFFFFFFFFFFFFFFFFFFFFFF AND DUP2 MSTORE PUSH1 0x20 ADD SWAP1 DUP2 MSTORE PUSH1 0x20 ADD PUSH1 0x0 KECCAK256 PUSH1 0x0 DUP5 PUSH20 0xFFFFFFFFFFFFFFFFFFFFFFFFFFFFFFFFFFFFFFFF AND PUSH20 0xFFFFFFFFFFFFFFFFFFFFFFFFFFFFFFFFFFFFFFFF AND DUP2 MSTORE PUSH1 0x20 ADD SWAP1 DUP2 MSTORE PUSH1 0x20 ADD PUSH1 0x0 KECCAK256 DUP2 SWAP1 SSTORE POP DUP2 PUSH20 0xFFFFFFFFFFFFFFFFFFFFFFFFFFFFFFFFFFFFFFFF AND DUP4 PUSH20 0xFFFFFFFFFFFFFFFFFFFFFFFFFFFFFFFFFFFFFFFF AND PUSH32 0x8C5BE1E5EBEC7D5BD14F71427D1E84F3DD0314C0F7B2291E5B200AC8C7C3B925 DUP4 PUSH1 0x40 MLOAD DUP1 DUP3 DUP2 MSTORE PUSH1 0x20 ADD SWAP2 POP POP PUSH1 0x40 MLOAD DUP1 SWAP2 SUB SWAP1 LOG3 POP POP POP JUMP JUMPDEST PUSH1 0x0 PUSH20 0xFFFFFFFFFFFFFFFFFFFFFFFFFFFFFFFFFFFFFFFF AND DUP4 PUSH20 0xFFFFFFFFFFFFFFFFFFFFFFFFFFFFFFFFFFFFFFFF AND EQ ISZERO PUSH2 0xC3A JUMPI PUSH1 0x40 MLOAD PUSH32 0x8C379A000000000000000000000000000000000000000000000000000000000 DUP2 MSTORE PUSH1 0x4 ADD DUP1 DUP1 PUSH1 0x20 ADD DUP3 DUP2 SUB DUP3 MSTORE PUSH1 0x25 DUP2 MSTORE PUSH1 0x20 ADD DUP1 PUSH2 0xFA7 PUSH1 0x25 SWAP2 CODECOPY PUSH1 0x40 ADD SWAP2 POP POP PUSH1 0x40 MLOAD DUP1 SWAP2 SUB SWAP1 REVERT JUMPDEST PUSH1 0x0 PUSH20 0xFFFFFFFFFFFFFFFFFFFFFFFFFFFFFFFFFFFFFFFF AND DUP3 PUSH20 0xFFFFFFFFFFFFFFFFFFFFFFFFFFFFFFFFFFFFFFFF AND EQ ISZERO PUSH2 0xCC0 JUMPI PUSH1 0x40 MLOAD PUSH32 0x8C379A000000000000000000000000000000000000000000000000000000000 DUP2 MSTORE PUSH1 0x4 ADD DUP1 DUP1 PUSH1 0x20 ADD DUP3 DUP2 SUB DUP3 MSTORE PUSH1 0x23 DUP2 MSTORE PUSH1 0x20 ADD DUP1 PUSH2 0xF62 PUSH1 0x23 SWAP2 CODECOPY PUSH1 0x40 ADD SWAP2 POP POP PUSH1 0x40 MLOAD DUP1 SWAP2 SUB SWAP1 REVERT JUMPDEST PUSH2 0xD11 DUP2 PUSH1 0x0 DUP1 DUP7 PUSH20 0xFFFFFFFFFFFFFFFFFFFFFFFFFFFFFFFFFFFFFFFF AND PUSH20 0xFFFFFFFFFFFFFFFFFFFFFFFFFFFFFFFFFFFFFFFF AND DUP2 MSTORE PUSH1 0x20 ADD SWAP1 DUP2 MSTORE PUSH1 0x20 ADD PUSH1 0x0 KECCAK256 SLOAD PUSH2 0xE50 SWAP1 SWAP2 SWAP1 PUSH4 0xFFFFFFFF AND JUMP JUMPDEST PUSH1 0x0 DUP1 DUP6 PUSH20 0xFFFFFFFFFFFFFFFFFFFFFFFFFFFFFFFFFFFFFFFF AND PUSH20 0xFFFFFFFFFFFFFFFFFFFFFFFFFFFFFFFFFFFFFFFF AND DUP2 MSTORE PUSH1 0x20 ADD SWAP1 DUP2 MSTORE PUSH1 0x20 ADD PUSH1 0x0 KECCAK256 DUP2 SWAP1 SSTORE POP PUSH2 0xDA4 DUP2 PUSH1 0x0 DUP1 DUP6 PUSH20 0xFFFFFFFFFFFFFFFFFFFFFFFFFFFFFFFFFFFFFFFF AND PUSH20 0xFFFFFFFFFFFFFFFFFFFFFFFFFFFFFFFFFFFFFFFF AND DUP2 MSTORE PUSH1 0x20 ADD SWAP1 DUP2 MSTORE PUSH1 0x20 ADD PUSH1 0x0 KECCAK256 SLOAD PUSH2 0xED9 SWAP1 SWAP2 SWAP1 PUSH4 0xFFFFFFFF AND JUMP JUMPDEST PUSH1 0x0 DUP1 DUP5 PUSH20 0xFFFFFFFFFFFFFFFFFFFFFFFFFFFFFFFFFFFFFFFF AND PUSH20 0xFFFFFFFFFFFFFFFFFFFFFFFFFFFFFFFFFFFFFFFF AND DUP2 MSTORE PUSH1 0x20 ADD SWAP1 DUP2 MSTORE PUSH1 0x20 ADD PUSH1 0x0 KECCAK256 DUP2 SWAP1 SSTORE POP DUP2 PUSH20 0xFFFFFFFFFFFFFFFFFFFFFFFFFFFFFFFFFFFFFFFF AND DUP4 PUSH20 0xFFFFFFFFFFFFFFFFFFFFFFFFFFFFFFFFFFFFFFFF AND PUSH32 0xDDF252AD1BE2C89B69C2B068FC378DAA952BA7F163C4A11628F55A4DF523B3EF DUP4 PUSH1 0x40 MLOAD DUP1 DUP3 DUP2 MSTORE PUSH1 0x20 ADD SWAP2 POP POP PUSH1 0x40 MLOAD DUP1 SWAP2 SUB SWAP1 LOG3 POP POP POP JUMP JUMPDEST PUSH1 0x0 DUP3 DUP3 GT ISZERO PUSH2 0xEC8 JUMPI PUSH1 0x40 MLOAD PUSH32 0x8C379A000000000000000000000000000000000000000000000000000000000 DUP2 MSTORE PUSH1 0x4 ADD DUP1 DUP1 PUSH1 0x20 ADD DUP3 DUP2 SUB DUP3 MSTORE PUSH1 0x1E DUP2 MSTORE PUSH1 0x20 ADD DUP1 PUSH32 0x536166654D6174683A207375627472616374696F6E206F766572666C6F770000 DUP2 MSTORE POP PUSH1 0x20 ADD SWAP2 POP POP PUSH1 0x40 MLOAD DUP1 SWAP2 SUB SWAP1 REVERT JUMPDEST PUSH1 0x0 DUP3 DUP5 SUB SWAP1 POP DUP1 SWAP2 POP POP SWAP3 SWAP2 POP POP JUMP JUMPDEST PUSH1 0x0 DUP1 DUP3 DUP5 ADD SWAP1 POP DUP4 DUP2 LT ISZERO PUSH2 0xF57 JUMPI PUSH1 0x40 MLOAD PUSH32 0x8C379A000000000000000000000000000000000000000000000000000000000 DUP2 MSTORE PUSH1 0x4 ADD DUP1 DUP1 PUSH1 0x20 ADD DUP3 DUP2 SUB DUP3 MSTORE PUSH1 0x1B DUP2 MSTORE PUSH1 0x20 ADD DUP1 PUSH32 0x536166654D6174683A206164646974696F6E206F766572666C6F770000000000 DUP2 MSTORE POP PUSH1 0x20 ADD SWAP2 POP POP PUSH1 0x40 MLOAD DUP1 SWAP2 SUB SWAP1 REVERT JUMPDEST DUP1 SWAP2 POP POP SWAP3 SWAP2 POP POP JUMP INVALID GASLIMIT MSTORE NUMBER ORIGIN ADDRESS GASPRICE KECCAK256 PUSH21 0x72616E7366657220746F20746865207A65726F2061 PUSH5 0x6472657373 GASLIMIT MSTORE NUMBER ORIGIN ADDRESS GASPRICE KECCAK256 PUSH2 0x7070 PUSH19 0x6F766520746F20746865207A65726F20616464 PUSH19 0x65737345524332303A207472616E7366657220 PUSH7 0x726F6D20746865 KECCAK256 PUSH27 0x65726F206164647265737345524332303A20617070726F76652066 PUSH19 0x6F6D20746865207A65726F2061646472657373 LOG2 PUSH6 0x627A7A723158 KECCAK256 0xC6 PUSH13 0x5184060709C303B84986361029 0xE3 0xE0 DUP12 0xB5 SWAP12 DUP15 0x5F PUSH22 0x3E134F99F76407F35F64736F6C634300051100320000 "
				},
				"gasEstimates": {
					"creation": {
						"codeDepositCost": "826400",
						"executionCost": "infinite",
						"totalCost": "infinite"
					},
					"external": {
						"DECIMALS()": "306",
						"INITIAL_SUPPLY()": "393",
						"allowance(address,address)": "1409",
						"approve(address,uint256)": "infinite",
						"balanceOf(address)": "1263",
						"decimals()": "1084",
						"decreaseAllowance(address,uint256)": "infinite",
						"increaseAllowance(address,uint256)": "infinite",
						"name()": "infinite",
						"symbol()": "infinite",
						"totalSupply()": "1058",
						"transfer(address,uint256)": "infinite",
						"transferFrom(address,address,uint256)": "infinite"
					}
				},
				"methodIdentifiers": {
					"DECIMALS()": "2e0f2625",
					"INITIAL_SUPPLY()": "2ff2e9dc",
					"allowance(address,address)": "dd62ed3e",
					"approve(address,uint256)": "095ea7b3",
					"balanceOf(address)": "70a08231",
					"decimals()": "313ce567",
					"decreaseAllowance(address,uint256)": "a457c2d7",
					"increaseAllowance(address,uint256)": "39509351",
					"name()": "06fdde03",
					"symbol()": "95d89b41",
					"totalSupply()": "18160ddd",
					"transfer(address,uint256)": "a9059cbb",
					"transferFrom(address,address,uint256)": "23b872dd"
				}
			},
			"storageLayout": {
				"storage": [
					{
						"astId": 375,
						"contract": "github.com/OpenZeppelin/openzeppelin-contracts/blob/v2.3.0/contracts/examples/SimpleToken.sol#L20:SimpleToken",
						"label": "_balances",
						"offset": 0,
						"slot": "0",
						"type": "t_mapping(t_address,t_uint256)"
					},
					{
						"astId": 381,
						"contract": "github.com/OpenZeppelin/openzeppelin-contracts/blob/v2.3.0/contracts/examples/SimpleToken.sol#L20:SimpleToken",
						"label": "_allowances",
						"offset": 0,
						"slot": "1",
						"type": "t_mapping(t_address,t_mapping(t_address,t_uint256))"
					},
					{
						"astId": 383,
						"contract": "github.com/OpenZeppelin/openzeppelin-contracts/blob/v2.3.0/contracts/examples/SimpleToken.sol#L20:SimpleToken",
						"label": "_totalSupply",
						"offset": 0,
						"slot": "2",
						"type": "t_uint256"
					},
					{
						"astId": 766,
						"contract": "github.com/OpenZeppelin/openzeppelin-contracts/blob/v2.3.0/contracts/examples/SimpleToken.sol#L20:SimpleToken",
						"label": "_name",
						"offset": 0,
						"slot": "3",
						"type": "t_string_storage"
					},
					{
						"astId": 768,
						"contract": "github.com/OpenZeppelin/openzeppelin-contracts/blob/v2.3.0/contracts/examples/SimpleToken.sol#L20:SimpleToken",
						"label": "_symbol",
						"offset": 0,
						"slot": "4",
						"type": "t_string_storage"
					},
					{
						"astId": 770,
						"contract": "github.com/OpenZeppelin/openzeppelin-contracts/blob/v2.3.0/contracts/examples/SimpleToken.sol#L20:SimpleToken",
						"label": "_decimals",
						"offset": 0,
						"slot": "5",
						"type": "t_uint8"
					}
				],
				"types": {
					"t_address": {
						"encoding": "inplace",
						"label": "address",
						"numberOfBytes": "20"
					},
					"t_mapping(t_address,t_mapping(t_address,t_uint256))": {
						"encoding": "mapping",
						"key": "t_address",
						"label": "mapping(address => mapping(address => uint256))",
						"numberOfBytes": "32",
						"value": "t_mapping(t_address,t_uint256)"
					},
					"t_mapping(t_address,t_uint256)": {
						"encoding": "mapping",
						"key": "t_address",
						"label": "mapping(address => uint256)",
						"numberOfBytes": "32",
						"value": "t_uint256"
					},
					"t_string_storage": {
						"encoding": "bytes",
						"label": "string",
						"numberOfBytes": "32"
					},
					"t_uint256": {
						"encoding": "inplace",
						"label": "uint256",
						"numberOfBytes": "32"
					},
					"t_uint8": {
						"encoding": "inplace",
						"label": "uint8",
						"numberOfBytes": "1"
					}
				}
			},
			"userdoc": {
				"methods": {}
			}
		}
	}
}